:020000041000EA
:1000000000B5324B212058609868022188439860DF
:10001000D860186158612E4B002199600221596106
:100020000121F02299502B49196001219960352056
:1000300000F044F80222904214D00621196600F024
:1000400034F8196E01211966002018661A6600F04E
:100050002CF8196E196E196E052000F02FF8012189
:100060000842F9D1002199601B49196000215960AB
:100070001A491B48016001219960EB211966A021F2
:10008000196600F012F800219960164914480160C1
:100090000121996001BC002800D000471248134993
:1000A000086003C880F30888084703B5996A0420EC
:1000B0000142FBD001200142F8D103BD02B5186610
:1000C0001866FFF7F2FF186E186E02BD00000240BE
:1000D000000000180000070000035F00212200005C
:1000E000F4000018222000A00001001008ED00E03C
:1000F00000000000000000000000000074B24E7A12
:1001000000200420F7010010C3010010C5010010F9
:10011000C1010010C1010010C1010010C101001097
:10012000C1010010C1010010C1010010C701001081
:10013000C1010010C1010010C9010010CB01001065
:10014000CD010010CD010010CD010010CD01001037
:10015000CD010010CD010010CD010010CD01001027
:10016000CD010010CD010010CD010010CD01001017
:10017000CD010010CD010010CD010010CD01001007
:10018000CD010010CD010010CD010010CD010010F7
:10019000CD010010CD010010CD010010CD010010E7
:1001A000CD010010CD010010CD010010CD010010D7
:1001B000CD010010CD010010CD010010CD010010C7
:1001C00000BE00BE00BE00BE00BE00BE00F04BF888
:1001D000103800BEF2EB8871D4EA001000EB00107A
:1001E0003402001090A31AE700202149086006C8D5
:1001F00081F3088810471F48006800282FD10DA4FC
:100200000ECC002902D000F012F8F9E71A491B4A77
:10021000002000E001C19142FCD1194988471949E9
:1002200088471949884700BEFDE701C901C29A42C3
:10023000FBD3704700EB0010C00000203C9E002064
:100240007C88011000000420000004207C8801103C
:1002500000100420001004200000000070470B482C
:1002600005F0ACF80047EFF30580C0B2704700001E
:1002700008ED00E0000000D0409E0020ECAC002023
:10028000293700104D0C00104D3800105756000053
:1002900006005250ABB3605390E30010060052507A
:1002A000861C0302A0E30010060052505422A29DB7
:1002B000A8E3001005005250DE65F4687C88011048
:1002C000F8B5C04610B5064C2378002B07D1054B76
:1002D000002B02D0044800E000BF0123237010BDB2
:1002E00048A100200000000060D90010044B10B5A8
:1002F000002B03D00349044800E000BF10BDC046F6
:10030000000000004CA1002060D9001010B5041EB0
:1003100005D00AF0D1FC210005F082F80C00200085
:1003200010BDC04670B50400884206DA0D1A0AF006
:10033000C3FC290005F074F86418200070BDC046A5
:1003400010B51C00431A0298511A001B584305F0BF
:1003500067F8001910BDC04600B585B003AB02AA0E
:1003600001A901F0B7FD002801D105B000BD039A35
:100370000299019801F072FDF7E7C046F0B55746C3
:100380009A462823DE469B464E46454683445B46B6
:10039000E0B50500D02688469146012783461C001B
:1003A00085B00C353606286801F080FE3A0008CD8D
:1003B0009A407262A542F6D148235C469B462300D0
:1003C000A344D0275C4601269B463F06286801F0DF
:1003D0006DFE320008CD9A407A62A542F6D14146C0
:1003E0005C4632000231890061184B689A407A619C
:1003F0004A460A32920013599E4053467E61002BB2
:1004000000D112E1012B08D1432363655D33A3655D
:100410005F338A48E36506F0DBFF6425606DFF21EA
:10042000684304F0FDFF6065A06DFF21684304F0A0
:10043000F7FFA065E06DFF21684304F0F1FF0421A0
:10044000E065E06C01F002FE0421206D01F0FEFD8C
:100450000421A06C01F0FAFD01230726E26C550887
:100460001A409046226D354057081A400392A26CFC
:100470003740510813400E400193616DA36D0E3952
:10048000123B6165A365002902DA00220021626542
:10049000002B01DA0023A365694806F099FF606D1F
:1004A00005F0D2FA0022674B05F037FAA022664B1E
:1004B000120605F0EFFE0022624B05F04CFA05F043
:1004C000DBFA8146A06D05F0BFFA00225D4B05F016
:1004D00024FAA0225C4B120605F0DCFE0022594BE8
:1004E00005F039FA05F0C8FA0290E06D05F0ACFAB3
:1004F0000022544B05F011FAA022534B120605F0CE
:10050000C9FE00224F4B05F026FA05F0B5FA494620
:1005100082464E4806F05CFF1022AB005D194C4B42
:100520004C48AD00EB185A6018614B4B64219B4658
:100530004B46584304F09CFF43460004AB44000C78
:10054000002B69D1454B5A4612686421504018402F
:1005500080235A465B01134310221860BB00DF1949
:100560003B4B3C48BF00FB185A6018613A4B984619
:10057000029BB844584304F07BFF039B0004000C2B
:10058000002B4FD1354B4246126864215040184031
:10059000802342465B01134310221860B3009E196A
:1005A0002B4B2C48B600F3185A6018612A4B98461A
:1005B0005346584304F05CFF019B0004B044000C18
:1005C000002B2CD1254B4246126854345040184021
:1005D000802342465B011A4310601D4A9446012263
:1005E0001000654429681D43884328601000674453
:1005F00039681F43884338606644316833438A430F
:100600001A6017480ECC06F0E3FE05B0F0BCBB46FE
:10061000B246A946A046F0BD124B000493E7114B29
:100620000004D0E70F4B0004ADE7FA236365B43B49
:10063000A365E3650C4806F0CBFEEEE668D9001032
:1006400070D90010000059409999014078D90010E4
:1006500000000540D1B700000C000540FFFF00007E
:1006600084D900100000FFFF60D90010F8B5012404
:100670002E4806F00BFE2E4B2E48197906F0A8FEE8
:100680002D4D286801F012FD2C4E306801F00EFD52
:1006900022002B68D0259A402D06AA6222003368DA
:1006A000274F9A403868AA6201F000FD254E306855
:1006B00001F0FCFC22003B68234F9A406A62220052
:1006C000336838689A406A6201F0F0FC1F4E306867
:1006D00001F0ECFC22003B6828209A4033686A62F3
:1006E0009C406C6206F06CFC0023194C0370C360E4
:1006F000036143618361C36103624362206003203D
:1007000001F0D4FC08236B62124B1B78002B00D144
:10071000F8BD206801F006FB206801F0E5FA2068CA
:1007200001F01CFB0C4806F0B1FDF1E7A0D9001068
:100730004C040020CCD900103C04002040040020D0
:10074000F8920020FC92002044040020480400207D
:10075000E8AB0020E2AC0020E0D90010F0B5C646BE
:1007600000B5474C94B0206801F0DCFA206801F035
:10077000BBFA206801F01CFB23684248D969424B50
:10078000196006F025FE2168404E8B69404F3360AA
:100790000B6A4A6A3B603F4B3F4898461A60CB68F9
:1007A0000A69496906F014FE434632681B683968D5
:1007B0003A4806F00DFE2422002102A806F0F4FBC0
:1007C000242200210BA806F0EFFB782302A8079350
:1007D000773B05930AF05AF8434605000C001B6866
:1007E0000BA8643310933B68013B0F93336801936C
:1007F0000E930AF04BF82A00230009F075FC05F06F
:100800003BF92749060004F00BFE040001002548CF
:1008100006F0DEFD244D2548295D06F0D9FD244B68
:10082000295D244A1B681160002B01DB190013604D
:10083000214806F0CDFD214B9E421DDD0023002105
:10084000EA5C01335042424189189C42F8DC0124A1
:100850000C401B4806F0BCFD1A4B1B4A1B68146079
:10086000002B01DB1C0013602100184806F0B0FDCE
:1008700014B080BCB846F0BD00240021E9E7C046B2
:10088000E8AB0020F0D900103404002010930020C1
:10089000300400203804002000DA001010DA0010C4
:1008A0008051010024DA00104C04002040DA0010CE
:1008B0000493002058A7002064DA00107F51010043
:1008C00070DA00100893002054A7002084DA00108A
:1008D000F0B5C64600B5BB4884B006F0D7FC0A2088
:1008E00006F084FCB84806F0D1FCB84B1B68062B18
:1008F0003FD8B74A9B00D3589F46B64806F0C6FC7F
:10090000B54DB648296806F063FD9220400006F018
:1009100057FBB34BB34E9846B34B04001A68B34B26
:100920001968336801932B68009343461B6800F0F5
:1009300087FCAF4F2B683C60042B00D13DE1922037
:10094000400006F03DFB43460400AA4A3068AA492D
:100950001B6812680968019028680090200000F068
:100960006FFCA64D38682C6000F090FC286800F001
:100970008DFC04B080BCB846F0BDA14806F086FCF2
:10098000A42006F01DFB040001F022F89D4FA420D6
:100990003C6006F015FB040001F01AF89A4D924BEA
:1009A0002C601A688C4C914B8D4E196823683868FE
:1009B0000093336801F020F824688E4A8E4933682A
:1009C000126809682868009401F016F8D1E78F488A
:1009D00006F05CFC8B20800006F0F2FA040000F0C8
:1009E000B5FA8B208A4F80003C6006F0E9FA0400DB
:1009F00000F0ACFA874D7C4B2C601A68764C7B4B30
:100A0000774E1968236838680093336800F0D6FA87
:100A10002468784A7849336812680968286800941D
:100A200000F0CCFAA5E77C4806F030FC9E204000A0
:100A300006F0C6FA040000F0C7FC9E20774D400087
:100A40002C6006F0BDFA040000F0BEFC2868654D7D
:100A5000734F2968644B654A3C605F4C1B681268A1
:100A6000029121685E4E019131680091012100F0F0
:100A7000C7FC2168042900D18DE02C685D4B5E4ADB
:100A80001B68126838680294019131680091002156
:100A900000F0B6FC6DE7634806F0F8FB624806F02C
:100AA0008FFA040000F0B8FD604E5F48346006F035
:100AB00087FA040000F0B0FD4B4B5D4D1A684B4BBC
:100AC0003068196804232C600093033B00F020FE7B
:100AD000414C434B2468474A47491B6812680968E0
:100AE0002868009400F014FE43E7524806F0CEFB5D
:100AF000A02006F065FA040001F01EF84E4FA02079
:100B00003C6006F05DFA040001F016F84B4D364BE0
:100B10002C601A68304C354B314E196823683868A0
:100B20000093336801F016F82468324A324933687A
:100B3000126809682868009401F00CF819E7404829
:100B400006F0A4FB9220400006F03AFA040000F000
:100B5000AFFE92203B4F40003C6006F031FA0400AB
:100B600000F0A6FE384D204B2C601A681A4C1F4B23
:100B70001B4E1968236838680093336800F0B8FE8C
:100B800024681C4A1C493368126809682868009464
:100B900000F0AEFEEDE628680AF084F82968154BEF
:100BA000154A1B6812683868029121680191316802
:100BB0000091012100F024FCDBE630680AF072F8B5
:100BC000BDE6C04690DA0010A4DA001054A7002059
:100BD00058DB0010B0DA001058A70020C4DA00106B
:100BE00034040020BCAC0020F89200203C0400201B
:100BF0005CAC0020FC9200204004002060AC00208F
:100C000034DB001074AC002078AC002044DB001012
:100C100054AC002058AC0020D8DA001064AC00209E
:100C200068AC0020ECDA0010A4040000ECAB00205B
:100C3000F0AB002004DB00106CAC002070AC002096
:100C40001CDB0010E0AB0020E4AB0020F0B5DE467A
:100C500057464E464546E0B5012083B0FFF77CFB82
:100C6000814A8249906A936A1B1A8B42FBD9804859
:100C7000FFF772FB06F0B8FB7E4B1B78002B00D011
:100C8000D7E0FFF7F3FCFFF769FD7B4B18687B4B60
:100C90001B68C0187A4B1B68C0187A4B1B68C018B9
:100CA000794B1860794B1B78002B01D0784B186872
:100CB00009F0F8FF774B78489B46784BD0251B68A6
:100CC00001240193764B019A19685B461B68FFF774
:100CD00055FB744806F0DAFA5B467348196806F06B
:100CE00077FB6E4B71481B682D061900019306F0C7
:100CF0006FFB80216E4806F06BFB6E4B6E4F9A4681
:100D00001A786E4B6E4E99466E4B984648462100B7
:100D100000686B68814040460068C3401C4200D0B8
:100D20008DE06961210038686B6881403068C3409C
:100D30001C4200D08DE06961002A00D18DE05B4645
:100D40001B68062B00D98DE05F4A9B00D3589F4655
:100D50005E4B1B681800019300F0B2FE5C4B1B68F1
:100D60001800019300F0ACFE53461A78CEE7594BB9
:100D70001B681800019300F0EFFD574B1B6818002B
:100D8000019300F0E9FD53461A78BFE7534B1B6807
:100D90001800019300F062FF514B1B68180001938B
:100DA00000F05CFF53461A78B0E74E4B1B68180002
:100DB000019300F02DFD4C4B1B681800019300F0CF
:100DC00027FD53461A78A1E7484B1B68180001938A
:100DD00000F0AEFB464B1B681800019300F0A8FB27
:100DE00053461A7892E7434B1B681800019300F0B2
:100DF000ADFA2A4B1B680193002BB5D03E4B1B6804
:100E00001800019300F0A2FA53461A787EE73B4B94
:100E10001B681800019300F087F9394B1B68180014
:100E2000019300F081F953461A786FE7643002F0BD
:100E300031F8002008F0EAF90028F7D021E7A9618D
:100E4000210038686B6881403068C3401C4200D183
:100E500071E7A961002A00D071E7FFF739FD534619
:100E60001C706CE7220051E7004005403F420F0034
:100E700048E80100E9AC0020109300203004002075
:100E80003804002000930020BCAC0020E6AC002019
:100E90000C93002054A70020F4AB002058A700209A
:100EA0003404002078DD001074DB001090DB0010AB
:100EB000ACDB0010E7AC0020480400204404002014
:100EC000FC920020F8920020C8DB001074AC0020D7
:100ED00078AC0020E0AB0020E4AB00206CAC00203C
:100EE00070AC0020ECAB0020F0AB002064AC002024
:100EF00068AC00205CAC002060AC002054AC00204A
:100F000058AC00200F49104B0A00180070B50C3285
:100F100070C870C270C870C200681C3310600A00CC
:100F2000283231CB31C231CB31C211CB11C20323B4
:100F30008B640133CB6401330B6500234B658B65F8
:100F4000CB6570BDF4AB0020E4DB001010B50400ED
:100F50008022002106F028F8200080220021803025
:100F600006F022F8601C80221249FF3006F022F8B9
:100F70002000813080220021FF3006F015F8802209
:100F8000002392008321A3500432A3500432A350C3
:100F900000228900635208492000625402316350E4
:100FA000043163500431635004316254882292004A
:100FB000A35010BD50DC00100E020000F8B5CE4664
:100FC0004746040080B554480E0017001D0006F087
:100FD0005DF98A239B00E750043BE650089A0135EF
:100FE000143BE55004338125E25032220C33AD002E
:100FF000E25000206159FFF795F9082382226351DE
:1010000000239200A3500432A3540133FF33E3586A
:10101000082698460020671CFF3705000820FFF7C8
:1010200075F98300FB181A68AD00013EEA51002EE5
:10103000F3D1424681261A60B600A359002B33DD56
:101040000123882700259846BF006420FFF75EF93A
:10105000E359984255DA4246AB00E250A3590135B4
:101060009D42F2DB002B1FDD88239B009846012365
:1010700026008127002599468036BF006420FFF7AF
:1010800045F94346E358984240DA4B4608C6E259D0
:1010900001359542F2DB002A06DD20008130210077
:1010A0009200FF300CF054FC81271C48BF0006F072
:1010B000EDF8E359002B0ADD0025194EAB00E1588D
:1010C000300006F085F9E3590135AB42F6DC1548EE
:1010D00006F0DCF881239B009846E358002B0CDDDA
:1010E000270000250E4E8037300002CF06F070F941
:1010F0004346E3580135AB42F6DCC0BCB946B046C6
:10110000F8BDA3590135AB429FDCABE7E25901358D
:101110000436AA42B2DCBEE720DC00103CDC001042
:1011200038DC001030DC001089239B00C258D0232B
:101130001B065B68F0B5D340C6460121040000B52C
:10114000194203D03B4BC05C002811D0D0210906C6
:101150004B68D3400122100018401A4205D1354B8C
:10116000E0541A33E3589A404A6180BCB846F0BD57
:101170008225E154AD000A3BE1586359994238DCBD
:101180006051083D6259130040339B0001321B59E6
:101190006251914243DD83229200A25C002A3BD13E
:1011A0001A0020329200125960339B001A51002914
:1011B0003EDD812326009B000025984681361E4F88
:1011C000FF36380002CE06F003F94346E3580135F6
:1011D000AB42F6DC194806F0FBF880239B00E1588F
:1011E000380006F0F5F8822389229B009200E3582C
:1011F000A2581900603189000959012904D08221BF
:10120000013389006350A1E78A2080002058814083
:10121000D02000068161F2E79A001259C4E76051BC
:10122000832001258000225C6A40D2B22254B5E7B7
:10123000014FCFE70E02000038DC001044DC001044
:10124000F0B51D008023C6465B00984600B50E0031
:10125000170000211A00040005F0A6FE00234246F4
:10126000A3500432A3500432A3541D33FF33E7507C
:10127000043BE650069A0C3BE5500433E250079AD3
:1012800004332000E25080BCB846F0BDF8B506003B
:101290000400451CFF350220FFF738F801C4A542C1
:1012A000F9D188235B00F358072B07D8224A9B000B
:1012B000D3589F46802310225B00F25080251F48A0
:1012C0006D0006F085F871591D4806F081F87359D4
:1012D000002B0ADD00241B4FA300F158380006F054
:1012E00077F873590134A342F6DC174806F070F81A
:1012F000F8BD8A235B00F05809F0D4FC10210D20C2
:10130000FFF710F880235B00F050D7E70A21072091
:10131000FFF708F880235B00F050CFE780230D2211
:101320005B00F250CAE707210520FEF7FBFF802390
:101330005B00F050C2E7C046ECDC0010D0DC0010CF
:10134000D0DA0010E0DC0010E4DC0010F8B58C22EC
:10135000D02552002D0682586B680400D34001222C
:10136000110019401A4207D184235B00C154143381
:10137000C3589A406A61F8BD84235B00C35C002BAC
:10138000F9D182277F00C3599A001658012E0FD039
:10139000802182224900615801335200A3508B42C0
:1013A00001DB0023A350842301225B00E254E2E727
:1013B000044806F00DF88E235B00E3589E40E35985
:1013C000AE61E5E70CDD0010012310B504005B42BF
:1013D00008C08022002105F0E7FD200080220021C6
:1013E000843005F0E1FD822200235200A350083230
:1013F000A3502933FF33DA3A2000E25010BDC04633
:10140000F8B505000120404228602E30FF302A50F8
:10141000CE46474698228E2480B55200AB50089B9A
:10142000183A0133AB50099B64002B519A230A9A56
:101430005B00EA502338143BE954FF3805F0D6FE30
:10144000364805F023FF2B59072B0AD8344A9B0056
:10145000D3589F460A210720FEF764FF84235B00D0
:10146000E8502B1D98461C0001232F009426994616
:10147000843776006420FEF749FFA959884201DAD3
:101480004B4623600434BC42F4D1842625487600C0
:1014900005F09EFFA959244805F09AFF0A2005F09F
:1014A000A5FEAB59002B0BDD0024204F434602CB99
:1014B0003800984605F08CFFAB590134A342F5DCA7
:1014C0000A2005F093FE0A2005F090FE882396225C
:1014D0005B005200EA50C0BCB946B046F8BD9A2342
:1014E0005B00E85809F0DEFB10210D20FEF71AFF23
:1014F00084235B00E850B4E784230D225B00EA50AC
:10150000AFE7842310225B00EA50AAE707210520F9
:10151000FEF708FF84235B00E850A2E714DD00100B
:101520004CDD001020DD001038DD0010E0DC001084
:10153000F8B59626D02376001B0682595B68CE4606
:101540004746D3400125040080B51D4204D0162330
:10155000FF33C75C002F16D0D02109064B68D3405B
:101560000122100018401A4209D11623FF33E0541B
:101570001B33E3589A4080231B034A618B61C0BC34
:10158000B946B046F8BDC554093B9846C158043B1E
:101590009946C3588B4217DD8B00E3185868012821
:1015A00004D0862301315B00E150D5E783301B581E
:1015B000012BF6D1AC3020588340D0200006836147
:1015C00080231B034361ECE7114805F001FF43460C
:1015D0001048E75005F05AFE8221490063581A006E
:1015E00020329200A21855604A46A2580133635037
:1015F000934208DD6750002A05DD2000002192009B
:10160000843005F0D1FC4346A259E158C4E7C046F6
:101610006CDD00107CDD001070B50400802200211C
:1016200005F0C2FC200080223349803005F0C2FC66
:10163000601C80220021FF3005F0B6FC80230125CC
:1016400020005B00E5500C33E5500C33E5501033BF
:10165000E55081300833E55080220021FF3005F04D
:10166000A3FCC0235B00E5500C33E5500C33E55080
:101670001033E5500C33E5504C3380221F49E018FD
:1016800005F098FCA0239B0080221D49E01805F07E
:1016900091FCC0239B0080221A49E01805F08AFCC7
:1016A000E0239B0080220021E01805F07DFCE02370
:1016B0009B00E5500C33E5500C33E5501033E550FA
:1016C0000433E5501033E550443380220021E01804
:1016D00005F06AFC8023DB00E5501033E550103341
:1016E000E5501033E5500023074A2000A350043290
:1016F000A350064AA35070BDCCDD00104CDE001094
:10170000CCDE00104CDF0010840400008C040000CC
:10171000F8B5CE4647461D0090260400354B80B5EF
:10172000C1500433C250344A6B1C08998350F600F0
:10173000043281508351314805F0A8FD290030481A
:1017400005F046FEA0592F4D810049198025ED0076
:10175000A946803DA846803DAC4622000023803D3E
:101760006719803DA144A044A4446619082804D800
:101770000D68AF464D46ED58156004330432802B9A
:10178000F4D1082008214042FEF7CCFD1E4B1F4E2D
:10179000E0501030A0510F2809DD0F250220FEF780
:1017A000B5FDAB00E050A3590135AB42F6DCC0BC3F
:1017B000B946B046F8BD4546ED581560DDE7250051
:1017C0008135FF35ED581560D7E725008035ED5898
:1017D0001560D2E7651CFF35ED581560CDE7FD5863
:1017E0001560CAE7F5581560C7E76546ED581560FE
:1017F000C3E7C0469C0400009404000084DD001090
:1018000038DC00108CDD00108C0400008404000023
:10181000234B0121C258D0231B065B6870B5D3400F
:101820000400194204D09223DB00C05C002810D0D1
:10183000D02109064B68D3400122100018401A42FB
:1018400006D19223DB00E0541033E3589A404A61FA
:1018500070BD9125134AED00E154A25863599A4294
:101860000ADD9A001259012A0CD091220133D200CC
:10187000A3500B4BE258DBE760510B4805F006FD27
:101880006359EEE79423DB00E35808489A40D023DD
:101890001B069A6105F0FAFC9123DB00E358E4E7AC
:1018A0009C04000084040000B0DD0010C0DD0010C6
:1018B00010B504008022002105F076FB2000802274
:1018C0000A49803005F076FB802200235200A350A5
:1018D0000432A3500432A3500432A3500432A35460
:1018E0000432A35004322000A35010BDCCDF0010FE
:1018F000F0B50500902040002A508E22C6465200C6
:10190000A9500133083AAB508C23802700B5069AC2
:101910005B00EA501422143BFF3B7F00EB51043381
:10192000FF33EA5004332C00002698460820FEF7C7
:10193000EDFC4346E850030008331B01EB180FCBC6
:10194000E36020606160A260EB5901361034B3425D
:10195000ECDC80BCB846F0BD8E235B00C258D023BF
:101960001B065B680121D34010B5194204D08823BF
:101970005B00C45C002C10D0D02109064B68D3401A
:10198000012214001C401A4206D188235B00C45473
:101990001033C3589A404A6110BDC15408310C3B02
:1019A000FF31C358415899420FDD591C9B001B5809
:1019B000012B06D1902464000459A340D0242406AE
:1019C000A36182235B00C150D6E701210023EDE72C
:1019D00010B580220021040005F0E6FA00238022E1
:1019E000A3500432A3540C32A3500432A350043247
:1019F0002000A35010BDC046F0B50400A020CE4684
:101A0000474622509C22581C882380B583B0A150A1
:101A10000A9AE0500433E250503B07220121009320
:101A20001E3BFEF78DFC90232021E0500020FEF7A6
:101A300079FC0123800003517F3398467F3B2500CA
:101A4000902799469826A0446420FEF75FFCE3594E
:101A5000984204DA4B462B60A3590133A351103549
:101A60004545F1D18C23E0580C33E358072200930D
:101A700001210223FEF764FC94230026E050231F7B
:101A800094279846864209DA2020FEF73FFC800022
:101A90000559012D07D0E0598642F5DB03B0C0BCE3
:101AA000B946B046F0BD64200136FEF72FFC312860
:101AB00002DCE0596560EFE743461D60E059EBE763
:101AC000D02370B59C251B0642595B680121D34089
:101AD0000400194203D08423C05C00280FD0D02119
:101AE00009064B68D3400122100018401A4205D164
:101AF0008423E0541C33E3589A404A6170BD802629
:101B0000E154A3591F2B0EDC99000959012903D078
:101B1000802101336350E2E7A02020588140D0208B
:101B200000068161F4E7A051024805F0AFFBA3591C
:101B30006259E9E74CE0001010B580220021040052
:101B400005F032FA00238422A35004322000A3546B
:101B500010BDC046F0B504009C208C26225098226F
:101B6000CE4647460133A150A351902380B583B0A0
:101B70000A9A3548E25005F089FB344DA1592800F6
:101B800005F026FC0F2307220121A05900930A3BF0
:101B9000FEF7D6FB0836A0512D4805F019FCA159D7
:101BA000280005F015FC1F211420FEF7BBFB802741
:101BB000E051284805F06AFBE159280005F008FCCF
:101BC000E1590020FEF7AEFB06000100280005F0F9
:101BD000FFFB0123B6003351E359002B10DD8023B6
:101BE00098461D4B0026994614376420FEF78EFB5D
:101BF000E359984211DB4346E3580136B342F4DC23
:101C00002600803602CC280005F0E2FBB442F9D170
:101C100003B0C0BCB946B046F0BD484605F036FB3F
:101C20003100280005F0D4FB6420FEF76FFB0100B3
:101C3000280005F0CDFB0122B300E2504346E358F3
:101C40000136B342D1DCDBE758E0001038DC00108D
:101C500064E0001070E0001078E000109823C25893
:101C6000D0231B065B680121D34070B504001942E4
:101C700003D08823C05C00280FD0D02109064B6810
:101C8000D3400122100018401A4205D18823E054A5
:101C90001433E3589A404A6170BD84258022E15490
:101CA000A25863599A4209DD9A001259012A0BD0B1
:101CB00084220133A3509823E258DEE7605108489C
:101CC00005F0E4FA6359EFE79C23E35805489A408E
:101CD000D0231B069A6105F0D9FA8423E358E7E77D
:101CE00084E0001090E0001030B5002585B00A4C6B
:101CF0000A4B02AA1380682102232000009508F0F5
:101D000035F9074B03AA13806821022320000095B0
:101D100008F02CF905B030BD049400200080FFFFCE
:101D200002A0FFFF10B50B490B4808F0F5F803219E
:101D3000102000F08BF90321112000F087F9002218
:101D40000121102000F09AF900220121112000F059
:101D500095F910BD801A060004940020F0B5C6461F
:101D600000B5104B86B0104A049304AB9A8023222E
:101D70009A710E4B0D2603249846002703AD6E443E
:101D8000335D2C706B702A00022368214046009757
:101D9000013408F0EBF80A2CF2D106B080BCB8464A
:101DA000F0BDC04630221406040400000494002054
:101DB0000F22F0B50326012585B0274F6A440400A1
:101DC0001670012300956821380008F0CFF8002331
:101DD000A21C009368213800073308F02FF907226E
:101DE000A078030913409900C9180F23490018402F
:101DF0000918E078E16007091740B900C9191840CF
:101E000049000918216121790F093740B800C0192C
:101E10001940400040186061607901090E40B1002E
:101E20008919184049000918A161A1790A40E1798E
:101E3000E2610A091540AA005219194052005218CD
:101E4000217A226208098200121852000B40D3182E
:101E5000636205B0F0BDC04604940020F0B583B0C5
:101E600005000E00140000F0AFF9002801D003B007
:101E7000F0BD154F01223B0001210097053001F014
:101E800005FD33002A0000940121104801F0ECFE0A
:101E900021002800714303F0EBFA04000C4B0022F0
:101EA00000930221042001F0F1FC23000022012113
:101EB0000094052001F0EAFC3B000222002100977B
:101EC000062001F0E3FCD2E7006CDC020080024057
:101ED000001BB700F0B5DE4657464E464546E0B516
:101EE000070085B0042003930191029201F0B6FE31
:101EF000FA21890003F0BCFA32238246FF33994667
:101F000086005644B6014F4B4F4AF31807249342BC
:101F10000ED901235B429C465346E144F61A4B46D8
:101F2000002BF0D100205DE0002900D186E00624DE
:101F300021003000614303F09BFA874242D0631EC8
:101F40009846012CE5D01D0065433000290003F0C0
:101F50008FFA87424DD0A31E9B46022C4FD02D1BDB
:101F60002900300003F084FA87424AD0E31E9B46E2
:101F7000032C61D02D1B2900300003F079FA874231
:101F800043D0231F9B46042C45D02D1B2900300035
:101F900003F06EFA874240D0631F9B46052C42D067
:101FA0002D1B2900300003F063FA87423DD04346E1
:101FB000052B3FD03000E91F03F05AFA8742B3D017
:101FC0000624B5E70029BAD1A04642460120730194
:101FD0009B1B9B009E19019BF6001E60029B1C60D0
:101FE000039B1A6005B0F0BCBB46B246A946A046AA
:101FF000F0BD0029E9D0A31E9B46022CAFD10124DD
:1020000096E70029B2D1D846DFE70029FBD0231F8D
:102010009B46042CB9D103248AE70029F3D0631F1F
:102020009B46052CBCD1042482E70029EBD0434613
:10203000052BBFD105247BE7022479E701239846CD
:10204000C3E7C046508EF4FF50F80C00094A8300E5
:1020500094464022634410B51C68C0006240C0240E
:1020600014408022520113431C60034B9C46604481
:10207000416010BD04C00140004001400A4B800097
:102080009C4604236044002901D00C230821002A27
:1020900000D10B00026853400C221A4080235B01E0
:1020A000184302607047C04604C001400123D0229B
:1020B0008340120693629361094A8300944640224A
:1020C00063441968C0004A40C02111408022520177
:1020D00013431960034B9C460523604443607047DB
:1020E00004C001400040014070B5EFF3108C72B69F
:1020F0000D4D2B68002BFCD0BFF35F8F0724CB085E
:10210000C618C05C01230C40A3401C0004400342DD
:1021100007D103433370BFF35F8F2C608CF31088BB
:1021200070BD100001F094FB2C0100D0F8B54746BB
:10213000CE46884680B5EFF3108C72B6214D2C68E0
:10214000002CFCD0BFF35F8F9A422CD8D40807270D
:10215000055D061901241740BC402C421FD0072101
:102160000127894609E0D408055D06194C46390067
:102170001440A1400C00294211D001329342F2D206
:1021800001204042BFF35F8F00220E4B1A608CF398
:10219000108800280FDBC0BCB946B046F8BD2C4300
:1021A00010003470EEE7BFF35F8F00232B608CF3D9
:1021B0001088012040424346002BECD0089801F0E3
:1021C00047FBC0462C0100D0024B18688007C00FA7
:1021D0007047C04600C006400021044B044ABFF3CC
:1021E0005F8F02C39342FAD17047C046000100D00E
:1021F000800100D0044A1078431CDBB2172B00D9B1
:10220000102313707047C0461493002000B5054B8F
:1022100083B00100009318221F230348FFF786FFB5
:1022200003B000BDA4E0001028A7002001238340D4
:10223000002904D0034A1360034A13607047034A1D
:102240001360FBE780E200E000E100E080E100E0F5
:1022500001238340014A13607047C04600E200E05A
:10226000084B10309B688000C358002B07D0064AEB
:1022700000209B1A2F229A424041C0B27047002092
:10228000FCE7C04600ED00E018930020024B103040
:102290009B688000C058704700ED00E070B50D00ED
:1022A000EFF3108672B60F4A1368002BFCD0BFF311
:1022B0005F8F0D4B10309B6884001B590B4A934273
:1022C00003D09D4201D001F0DBFA074B9B681D5102
:1022D000BFF35F8FBFF35F8F0022024B1A6086F35C
:1022E000108870BD240100D000ED00E0CD01001089
:1022F000F0B557464E46DE464546E0B585B0060089
:1023000002911700EFF3108B72B6674A1368002B27
:10231000FCD0BFF35F8F0025644B5D579A46002DBC
:1023200000DAA5E06B00624C03935B199B009846B2
:10233000A146C1444B4652469B79103613705D4B03
:10234000B2009B68019299580B1B2F2B34D95A4B22
:10235000994200D0A5E0039B584A9C46584B6544DF
:10236000AD006353434602336519E418554B012110
:10237000043B1B1B1B055B0D13436B80524BEF7122
:10238000AB80FF23AB71029BAB604B460B43190044
:10239000484B019A9B689950BFF35F8FBFF35F8FE3
:1023A0000022414B1A608BF3108805B0F0BCBB468D
:1023B000B246A946A046F0BD01200A008243D37967
:1023C000BB422FD845464E46130040491B1B5B417C
:1023D0005943090D3A4B63533A4B02356519043B97
:1023E0005B1B1B05354D5B0D2B4373800426B446E8
:1023F000E0444444131F1B1B4C46A17102991B056A
:10240000A16049465B0D2B43A380314BE77101432B
:102410001360BDE75800C01880002018C679BE427E
:102420002CD902000623D356002BF3DA101D824666
:10243000BD200002804604267642B446E144504660
:102440004E46361A3005400D824656461B48957159
:1024500006439680039A944665441D4AAD0064196C
:1024600022604246A371029BA280E771A3608FE7BE
:1024700001F006FA002553465D5753E7101D8246CA
:1024800090884005001584464046D4446646043092
:102490002018301AE0260005400D360230438046F1
:1024A000C9E701F0EDF956E7240100D0E3AC0020C4
:1024B0001893002000ED00E0CD01001000E0FFFFC8
:1024C00000A1FFFF4893002000BDFFFFAAAA000063
:1024D00001488047F0B5DE4657464E464546E0B5D2
:1024E0000C0083B0EFF3108A72B65A4A1368002BBF
:1024F000FCD0BFF35F8F1022914681444A46564B71
:1025000096009B689D59554B98469D4205D0A54223
:1025100016D0534FEB1B2F2B14D94F4B9B689D515B
:10252000BFF35F8FBFF35F8F00224A4B1A608AF3BD
:10253000108803B0F0BCBB46B246A946A046F0BD29
:102540001D00EAE7012383409B465A46454B1B6822
:102550001A4000925A46444B1A60BFF35F8FFDF752
:1025600082FE0190002803D0814501D001F088F956
:1025700001232A009A4393689C4208D15FE04B00F4
:102580005B189B00FB189968A14211D01A00062124
:1025900051560029F3DA009B002B05D05A46334BE5
:1025A0001A60304B1A60B8E75A462F4B1A60B4E7EE
:1025B00006215956002921DB4A00501880003C189A
:1025C0008046A0689860E079D871062020569871FE
:1025D000002824DBA488F81A640524154444001953
:1025E000E0240005400D2402204398805218204B1F
:1025F0009200BF181A781970BA71CCE701990029B6
:1026000010D1FF3191711B49918019490A789A7153
:10261000194ADB1B5B415A43120D0A70BBE7BD2010
:102620000002E2E7154A1649D21A083A5002400D54
:1026300001439980134952080A43DA80ABE7062127
:10264000515613000029B7DA019A002AEAD145460B
:10265000DBE7C046240100D000ED00E0CD01001012
:102660001893002000E100E080E100E080E200E05B
:10267000E3AC002000BDFFFFAAAA00005293002097
:1026800000F0FFFF00F8FFFFF8B501250400054347
:10269000FDF7E9FDEFF3108C72B6214A1368002BA9
:1026A000FCD0BFF35F8F1F4E2100B7681E4A1F4B3F
:1026B000891A49414B431B0D59B28300F858A8426F
:1026C0001CD00623D3568B421CD01223D3568B42E8
:1026D00022D01E23D3568B4220D02A23D356032048
:1026E0008B4210D0124B1A781970A271BFF35F8F12
:1026F00000220B4B1A608CF31088F8BDB2680D48AD
:10270000D050EFE7002043001B189B00D218FF2396
:102710009371094B9380E5E70120F4E70220F2E78B
:10272000240100D000ED00E018930020AAAA0000C8
:10273000E3AC0020CD01001000BDFFFF054B064AB1
:102740001360064A136053609360D3601361536152
:10275000936170478080808000E400E004E400E042
:10276000D02300B51B061B680100074883B0C018C2
:10277000064B002200930523FFF7D8FC002801DB5D
:102780001F23181A03B000BDDCAC0020C0E000100D
:10279000024B9C4661448900016070474000003450
:1027A00083680B4810B584466144624409011201F4
:1027B0009A18591854684B6801209C4201D802D0DD
:1027C0000020C0B210BD12680B689A42F9D8F7E732
:1027D000FFFFFF0F0A4B1968EFF3108072B60A680B
:1027E000002AFCD0BFF35F8F1B68BFF35F8F00220E
:1027F0001A6080F3108840BF002000217047C04657
:10280000A0AC0020F8B557464E464546DE46E0B53A
:1028100099460CAB1C780DAB1B78060090469A4687
:102820000768002C11D1BC7B002C42D065003B68AE
:102830002D19033D59194B78BB73002B00D1FB7345
:1028400000238B704B700B7004E065003B682D1902
:10285000033D5919B2682A4B94464246E3181B01BE
:1028600063441A604A465A600A9A9A600B9ADA6080
:1028700000238B704B700B707B7B9B46002B2BD007
:1028800022005946B8687B6898473A68002816D0F5
:102890005B4658465B005B445519033BA870D11852
:1028A000D35C002B00D06B705B460C707B73A34530
:1028B00013D0F0BCBB46B246A946A046F8BD5B4665
:1028C0005B005B44033BD3189C705119525D002A96
:1028D00000D05A705B460B707C7342464B46307D8D
:1028E00000F026FC051E06D05346002B03D1210024
:1028F000306800F03FFE0E9B002BDAD01D70D8E749
:10290000FFFFFF0FF0B5DE464E4657464546002313
:10291000E0B58DB00A936B4B8200D3580B9099466B
:1029200000239B464B46079300F0A2FB079C060042
:102930000F006268EFF3108572B61368002BFCD0AD
:1029400022000794BFF35F8F2468637B9946002BB6
:1029500067D092685C4B90464B441B0198444346B9
:102960001A685B6810001900801BB94100295FDDFF
:102970000B9800F0DDFB00230026984600279A46BE
:10298000079C6368BFF35F8F5A461A6085F310880F
:102990005346002B08D10028C6D10DB0F0BCBB4671
:1029A000B246A946A046F0BD0A9B414618024B46D6
:1029B0001843D047089009916268EFF3108572B60A
:1029C0001368002BFCD00794BFF35F8F0899099A16
:1029D000002A48DB114303D0079B1B69002B5DD104
:1029E000079B1B68D97B002907D04A005218196839
:1029F0008C4649466244033A51704A46DA734B4664
:102A0000079A013BD168CA5C0132CA545B46079AF7
:102A100013615368BFF35F8F5A461A6085F31088BD
:102A200082E700230026984600279A460020A7E761
:102A3000002901D100289BD10021200000F01CFDBD
:102A400043461E685F689B68079A9A464346DB6860
:102A50009846D3684B44013B1B780A931B020343FF
:102A6000136100208CE72369002BB9D033003C00B0
:102A70005B1A94411A002300A74219D89F421BD029
:102A80005946049101210391494602914146019121
:102A9000514607980091FFF7B5FEB7E700F0E8FA56
:102AA000089A099B06000F0092197B419942E5D9CB
:102AB00001225242D317E3E79642E1D90122524262
:102AC000D317DDE780AC0020FFFFFF0FF8B55746B6
:102AD0004E464546DE46E0B5404D81468A466A6828
:102AE000EFF3108872B61368002BFCD0BFF35F8F32
:102AF0002E68B47B002C39D0670033683F19033F40
:102B0000DB195A78B273002A00D1F273A968344AEB
:102B10008C464946A2181201624411605146516028
:102B2000304991600021D160997059701970737BA0
:102B30009B46002B35D022001900B0687368984777
:102B40003268002820D05B4658465B005B44D719AA
:102B5000033BB870D118D35C002B00D07B705B4670
:102B60000C7073735C451DD0002626E06B68BFF3C4
:102B70005F8F1C6088F3108801204042F0BCBB4688
:102B8000B246A946A046F8BD5B465B005B44033BEA
:102B9000D3189C70D119D25D002A00D05A705B46C0
:102BA0000B7074734A465346287D00F0C1FA061E26
:102BB000DAD02100286800F0DDFCEB681B19013B2E
:102BC00019786B68BFF35F8F00221A6088F3108852
:102BD0000020002ED2D108022043CFE760930020CE
:102BE000FFFFFF0FD527001010B5124C6368002BB4
:102BF00004D00A211048FFF7CBFD10BD23000F4A77
:102C00001021206800F056FB032000F025FA032075
:102C100000F0FEFA03200A4900F044FAFFF7EAFA4E
:102C2000084B9C46032360442375074B800060607B
:102C3000DC60DEE760930020A0AC0020A12700103C
:102C4000052900104000003480AC00200048704787
:102C500060930020F0B557464E464546DE46E0B547
:102C600085B0019310AB1B780600039300239A46AE
:102C7000984600927268EFF3108972B61368002BC1
:102C8000FCD0BFF35F8F3568AC7B002C49D0670068
:102C90002B683F19033FDB195A78AA73002A00D129
:102CA000EA73B1684F4A8C4600980199A218120144
:102CB0006244106051600E9991600F99D160424654
:102CC0009A705A701A706B7B9B46002B45D022007D
:102CD0001900A8686B6898472A68002830D05B46BE
:102CE00058465B005B44D719033BB870D118D35CDE
:102CF000002B00D07B705B460C706B735C452DD055
:102D0000F3681B19013B18787368BFF35F8F424665
:102D10001A6089F310885346002B2CD100022043FF
:102D200007E07368BFF35F8F1C6089F31088012090
:102D3000404205B0F0BCBB46B246A946A046F0BD35
:102D40005B465B005B44033BD3189C70D119D25D9A
:102D5000002A00D05A705B460B706C73307D009A6D
:102D6000019B00F0E5F982460028C9D021003068B7
:102D700000F000FCC4E7039B002B30D00E9B00202A
:102D80000F999847030004000D000B4327D000293A
:102D90000DDA0098019902000B00121BAB41994219
:102DA00013D818D000920193039B9A4662E700F073
:102DB0005FF902000B00A4185D4100940195A9423F
:102DC00003D8F1D100998A42EED901235B42DC1786
:102DD00000930194E8E700999142E3D9F5E70020D8
:102DE000A7E7C046FFFFFF0FF0B504000D00062661
:102DF0007642F717C64636196F4100B58F4213D891
:102E000010D000F035F932003B00121A8B41002B34
:102E100014DC002B37D02900200000F033F980BCEF
:102E2000B846F0BD8642ECD90026002700F020F914
:102E300032003B00121A8B41002BEADD30003900D2
:102E4000FFF744FE0028E6DB00239846BC460F4A05
:102E50000F4F7B6A9C4504D8B96A8E42DBD99C45EA
:102E6000D9D11168EFF3108072B60B68002BFCD03B
:102E7000BFF35F8F1368BFF35F8F4146196080F324
:102E8000108820BFE5E7002AC5D0D7E7A0AC002016
:102E90000040054070B5060000F0EAF8FA22040090
:102EA0000D00002330000021920003F0EBFF001919
:102EB00069418D4205D802D0FFF796FF70BD84426C
:102EC000FAD901204042C117F6E7C046F8B5CE4610
:102ED000474680B506000C00FFF7F8FD00280CDC23
:102EE0002D4B0020596A8C4203D89B6A0130B342B3
:102EF00045D3C0BCB946B046F8BD20BF274D6A686F
:102F0000EFF3108772B61368002BFCD0BFF35F8F0E
:102F10002B68C1B29C465B7B8B4235D0FF230340BC
:102F20005A00914662461268994490464A46424485
:102F3000033A9278002A1DD0EA68000A904643447A
:102F4000013B1B78C0B2834221D06B68BFF35F8F17
:102F500000221A6087F310880F4A0020536A9C42AF
:102F6000C7D8926A0130B242C3D2E01A421E9041E1
:102F7000C0B2BEE72B699842E7D12A61E5E7601A43
:102F8000431E9841C0B2B4E7FF230340D4E7604634
:102F900000F0F0FAD9E7C0460040054060930020F9
:102FA000F0B5D6464F464646C0B5EFF305833F22FF
:102FB000134018001038EFF3108C72B6204D2A68B9
:102FC000002AFCD0BFF35F8F0122110081401D4C0D
:102FD000884661631C4917000E788A463100C1405B
:102FE0000F400A4209D1BFF35F8F2F608CF3108826
:102FF000E0BCBA46B146A846F0BD14498200646AF6
:1030000051588C420FD3124BD25843469E435346DD
:103010001E70BFF35F8F00232B608CF31088002A93
:10302000E6D09047E4E70B4A9B00904643441A6879
:103030001A60BFF35F8F00232B608CF31088D7E7F3
:10304000280100D000400540E8AC0020ACAC0020D6
:1030500018A60020D03F054010B50100024A0348E1
:10306000FFF742F810BDC046DCE00010E1AC0020E4
:10307000034B596A0A00986A596A8A42FAD1704722
:1030800000400540064A536A9942FCD807D1044BD8
:1030900002E05A6A914202D19A6A8242F9D3704799
:1030A0000040054070B504000D00EFF3108672B6C5
:1030B0001A4A1368002BFCD0BFF35F8F002D1BD082
:1030C0002000FFF7E3F8164981420AD02000FFF7FD
:1030D000E5F801212000FFF7A9F80123A340114AD8
:1030E0001360114BA400E550BFF35F8F00220B4B20
:1030F0001A6086F3108870BD0B4BA200D5500122D8
:10310000A2400A4920000B7893430B700449FFF753
:10311000E1F900212000FFF789F8E5E7280100D058
:10312000A12F00103860054018A60020E8AC002050
:10313000F0B54F46D6464646C0B507002F4C616AEB
:103140000D00A66A616AA942FAD18B4208D805D05F
:103150000120E0BCBA46B146A846F0BDB242F7D95C
:10316000EFF3108A72B6264801680029FCD0BFF33D
:103170005F8F0125BD402349204C88460978894648
:103180002943C9B28C46414660460870391D1E4825
:10319000890065630A51B9000B50216A0020294259
:1031A00019D0616A0800A66A616A8142FAD18B422D
:1031B00019D801D1B24216D8CC451DD00F4B1F20D3
:1031C0001D625D6301230740BB40104A1E38136037
:1031D00043464A461A70BFF35F8F0022084B1A60BD
:1031E0008AF31088B5E70020BFF35F8F0022044BFD
:1031F0001A608AF31088ACE70120ECE70040054034
:10320000280100D0E8AC0020ACAC002080E200E057
:10321000EFF3108C72B60A490B68002BFCD0BFF399
:103220005F8F01238340074A0748136202789A435D
:103230000270BFF35F8F00230B608CF31088704720
:10324000280100D000400540E8AC002070B5050022
:1032500014001600002915D00C00002A12D0806836
:103260006B689847296800280ED073009B1962008C
:10327000033B1219CB18033A9C7088188A5C002A09
:1032800015D10670200070BD63001B197200033B4E
:103290009219CB18033A9E7088188A5C002A02D1D2
:1032A00004703400EEE75A7004703400EAE75A7094
:1032B0000670E7E730B583600023CCB24373013377
:1032C000047342608373C4730D000068012C06D937
:1032D000421C0133DBB2137003329C42F9D1FF214F
:1032E00029404B005918002340180338437030BD63
:1032F000F8B5CE46474606000C0080B5002907D039
:103300004D0003686D18033D5A195778002F04D1FA
:103310002000C0BCB946B046F8BD7900C9190339D0
:103320008846434459788946002159705170736822
:103330003A002100806898473368002814D042463C
:103340009A18947059195B5D002B00D053700F7060
:10335000270049463000FFF7CBFF3900020030005C
:10336000FFF774FF0400D3E7424641465D19AF7092
:103370009A185B5C002B00D06B701470E9E7C046B4
:10338000F0B557464546DE464E46E0B50D006B00AB
:1033900001685B19DF1E0400C85D83B00192CA1981
:1033A00000284CD043001B18033BCB185E78B44672
:1033B000002E16D1019E002E3ED0E67B002E04D0BA
:1033C00073009B19CB18033B5D70E57300282FD168
:1033D0000023537003B0F0BCBB46B246A946A046DA
:1033E000F0BD72006244033A89184A789046002280
:1033F0004A7091465A70010032002000FFF726FF04
:1034000043468246002B07D05B0021684344033BC0
:10341000CB185A78002A16D1424651462000FFF7B1
:1034200015FF2168019BCA19002BC6D10028CFD0F7
:1034300043001B18033BCB1800219970C8E7019B80
:10344000002BBAD1C4E75000801803380918487817
:10345000834648464870587041462000FFF7F6FE04
:10346000594680462000FFF743FF414602002000F6
:10347000FFF7ECFE8046CFE7F0B557464546DE46FF
:103480004E46E0B583B00191457B04006B000068B7
:103490005B19DF1EC15DC21900294ED04B005B18BD
:1034A000033BC3185E78B446002E18D1019E002E4F
:1034B00040D0E67B002E04D073009B19C318033B59
:1034C0005D70E573002931D10023280053706173CA
:1034D00003B0F0BCBB46B246A946A046F0BD7200A0
:1034E0006244033A80184278904600224270914626
:1034F0005A7020003200FFF7A9FE43468246002B97
:1035000007D05B0021684344033BCB185A78002A5C
:1035100017D1424651462000FFF798FE019B01005B
:103520002068C219002BC4D10029CDD04B005B18F4
:10353000033BC31800209870C6E7019B002BB8D14D
:10354000C2E7500080180338091848788346484677
:103550004870587041462000FFF778FE5946804673
:103560002000FFF7C5FE414602002000FFF76EFE77
:103570008046CEE770B5040000292CD0437B8B42F7
:103580002ED0056848004018033828188278002A91
:1035900021D053009B18033BEA5CEE188A4202D10B
:1035A0001BE0002A08D053009B18033BEB185A7805
:1035B0008A42F6D142785A70002301228370437008
:1035C0002000FFF7DDFE617B02002000FFF73EFEDA
:1035D0006073012000E0002070BD43783370EBE79A
:1035E00001221900FFF7CCFE60730120F4E7C0460A
:1035F00010B50400FEF7FEFD01002000FFF7C8F83B
:10360000FF232371BFF35F8F10BDC04610B50400C8
:10361000FEF7F0FD01002000FFF7BAF8FF23A380BA
:10362000BFF35F8F10BDC04610B504000120FEF748
:10363000EDFD044B9C46604480002060BFF35F8F2B
:1036400010BDC04640000034F8B5040006200D004F
:1036500000F004FB002844D02A4B2B49E2185342C7
:103660005A418023DB039C469205284B62441A6032
:10367000274B1A6010008B689843FBD1214B8021A7
:10368000E3185A425341234A5B00490099520620ED
:1036900000F0E4FA2900C00001F0EAFEC30921D1DC
:1036A00040270121260080256162A36200232C3679
:1036B000AD0135432B60062000F0D0FA39008000C0
:1036C00001F0D6FE6023E26A53406E221A40802346
:1036D0005B0133431A60104B236310232B600D3BB7
:1036E000A364F8BD0D4A934203D900230C4F0D4942
:1036F000D8E77F221040013040089F0119003F1891
:103700000300CFE70080FCBF00C0004000E00040A5
:1037100000F00040C0AC002001030000FEFF0000EC
:10372000C0FF3F00FFFF00002C4B2D4A70B51A6010
:103730002C4A2D4B2D491A6014008B689C43FBD1F9
:103740002B4D2C4EB54208D2013E761BB60808CD53
:10375000984723000134B342F9D100F021F9264AF9
:10376000214B1A60214A9368DB43DB01DD09002B02
:10377000F9D14022214B224C224E9A675A671A6790
:10378000DA66B44208D223682000002B20D0083427
:10379000FFF73CFFB442F6D31B4E1C4CC022A1687D
:1037A000300003F007FCA660FEF716FDFEF7C6FF2B
:1037B000FFF71AFA164C174EB44208D2013E361BD8
:1037C000B60808CC98472B0001359E42F9D170BD50
:1037D0000834FFF70DFFB442D5D3DDE700E0004029
:1037E000BFCDFBFEFE7F3C0000F0004000C000406B
:1037F000209E0020309E0020FFFFFF0100F00140CE
:10380000189E0020209E00200000002000ED00E017
:10381000309E00203C9E0020094A030010680028CA
:1038200005D00849C3188B4207D813607047064873
:103830000449C31810608B42F7D901204042F5E7D4
:10384000D0A7002000000420ECAC002000BEFDE763
:103850000FB400B5084883B003F018FD049B002B9B
:1038600007D005A91800019101F088FD034803F075
:103870000DFD00BEFDE7C04600E1001078DD001040
:1038800010B50148FFF7E4FF10E10010F0B5454620
:10389000DE4657464E46E0B583B001920C9A0500CD
:1038A00088469A4200D974E01A0E93461E023000F0
:1038B000002359460C9A01F01DFE374B6C009C46C4
:1038C0006419A400644463680700834200D2606006
:1038D0002B1FDBB29946012B35D9C02380229B01D7
:1038E000234312011A602D4BAD0059599A46002905
:1038F00005D0586901F0BCFD01300138FDD1019AB5
:10390000236852015340E0221A4080235B01234385
:103910001A604A46012A2FD9802380229B01234323
:1039200012011A60300000233A005946676001F026
:10393000E1FD53465851012003B0F0BCBB46B246EE
:10394000A946A046F0BD4346012BC6D1C0230322A1
:103950009B0123431A60023AA3681A42FCD0019AE1
:10396000236852015A40E0231A4080235B0123431D
:103970001A600A4AAD00924642462168514003222D
:103980000A401A60012243469A40A3681A42FCD0BA
:10399000C2E70020D0E7C046008000402CA70020EE
:1039A00030B50C2083B000F0B7F9FEF70DFC00280D
:1039B0000ED0944B944A1A605A609A60DA601A6189
:1039C0005A619A61DA611A62904A5A6203B030BD54
:1039D0008F4CA06700F0F4F901228E4B1A60636CE3
:1039E000012BFCD103228C4B1A60894A936B012B6B
:1039F000FCD101330121894A89480093043300F046
:103A000033F90523874A00930121874800F02CF9F8
:103A1000864B5A68FF2A02D8802252005A608022C0
:103A2000784C7D4B21691201804D1A60002905D028
:103A3000606901F01DFD01300138FDD1E0217B4BB3
:103A400002201A681140802252012A43116019682D
:103A5000484003210140116004219A681142FCD0C2
:103A60008022802192012A430901116080225200A4
:103A70005A606F4B23616F4B5968FF2900D85A6019
:103A80000321644A6B4B116002399A681142FCD0E1
:103A9000E0201A681040802252011A431060186812
:103AA0004840032101400220116062498A681042A7
:103AB000FCD0802292011343802212011A608022DE
:103AC0005D4B52004A6063615C4B5968FF2900D826
:103AD0005A6080225A4BE1691201584D1A60002940
:103AE00005D0606901F0C4FC01300138FDD1E0224D
:103AF00052490B681A4080235B012B431A608023D4
:103B000080229B012B4312011A6080223E4B5200FF
:103B10004A60E3614B4B5968FF2900D85A60802204
:103B2000494B216A1201474D1A60002905D060698E
:103B300001F09EFC01300138FDD1E02241490B68C3
:103B40001A4080235B012B431A60802380229B0153
:103B50002B4312011A60802380225B004B602A4BAA
:103B6000D2022362394B5968914200D25A608022B6
:103B7000374B616A1201354D1A60002905D0606922
:103B800001F076FC01300138FDD1E0222F490B68AD
:103B90001A4080235B012B431A60802380229B0103
:103BA0002B4312011A608023DB024B60174B6362C8
:103BB000284B5A68FF2A02D8802252005A6080227D
:103BC000254BA1691201234D1A60002905D06069B7
:103BD00001F04EFC01300138FDD1E0221D490B6897
:103BE0001A4080235B012B431A60802380229B01B3
:103BF0002B4312011A6080235B004B600E4BA361C4
:103C0000E4E6C0462CA70020006CDC021BB70000D5
:103C1000008000403CB0004030B00040002F6859A8
:103C200000800240008C864700C002403080004087
:103C3000001BB7003C80004040597307548000408F
:103C400054B000406080004060B000406C80004094
:103C50006CB000404880004048B00040014B8000FC
:103C6000C05870472CA70020F0B5C646040000B528
:103C70000C2090461F000E0001F0FAFB4101091ACA
:103C80008D01691AC90009188901404601F0F0FB4D
:103C9000069B3F041A0323681743002B22DB1A4BB1
:103CA0001A4DE21853425A4180235B019C4612038D
:103CB000174B62441A60174B1A601100AB689943A6
:103CC000FBD1C022231D92011A4321232660A0604C
:103CD00013602368002BFCDA0823E760136080BCC4
:103CE000B846F0BD3F2322681340B342D7D1A36842
:103CF0001B051B0D8342D2D1EE22E368D202134092
:103D0000BB42CCD1EBE7C0460040FDBF00C0004045
:103D100000E0004000F000408023024A9B00034383
:103D2000D36270470080054010B5140080221B4B01
:103D3000D2051A6000281AD00123194A1843194BDA
:103D4000DA61194A42401A62596298628022134B22
:103D5000D2051A601549164A1160E022D2041A6091
:103D6000002C07D18022134B12061A6010BD0D4B98
:103D7000D861EBE763011B1B9A0080231219120123
:103D80005B049A4200D30C4A0C4B1A60054B5A60F4
:103D90008022084BD2051A60E8E7C04600B0054013
:103DA000D3C007B0008005402D3FF84FFCFF010055
:103DB0000820014000A00540FFFFFF00DCAB002011
:103DC000AA23064A1B011360BC235B01D36004498C
:103DD000044B19605368002BFCDA70470040024026
:103DE00000B0FA00006002407047C046F8B5574680
:103DF0004E464546DE46E0B599460A9B07009A4680
:103E00000D9B8846934615000B9E9B0710D10C9B7B
:103E10009E420DD29D1B14000E005D4422004B46B5
:103E2000013431002020B847A542F7D1B0460B9E9F
:103E3000002E27D0444675195346AA1B013E985DB3
:103E400021004B46B847002EF6D123002C0098469F
:103E50000D9B9B070FD55B46E51A0C9BAB420AD91D
:103E60004646984622004B46310020200135B8478F
:103E70000134A845F6D82000F0BCBB46B246A9469E
:103E8000A046F8BD2C00E3E7F0B54F464646D646BF
:103E9000C0B584B098460EAB1B78129F99469446E5
:103EA0000D9C109B119EBA0725D4002E4BD19C422D
:103EB00000D3BFE001223A4092461F2C00D9B8E05F
:103EC0000C9A551E302201E0202C03D001342A55D3
:103ED000A342F9D85246002A0DD0A6420BD9202C75
:103EE00044D00C9A551E302201E0202C3ED00134E3
:103EF0002A55B442F9D1FA064DD57A053FD4002CA3
:103F000039D10F9B102B00D179E00F9B022B00D1F0
:103F10008AE030230C9A012413704B46002B3FD0CB
:103F20002D230C9A135501340C9B62460093039782
:103F3000434602960194FFF759FF04B0E0BCBA462D
:103F4000B146A846F0BD012215003D40AA463A42BE
:103F50002FD04A46002A02D10C323A4200D0013E0C
:103F60009C42BAD21F2CABD9202E27D92024FA0686
:103F7000DAD57A0503D4A3422DD0A6422BD00F9BCD
:103F8000102B32D0022B20D0202CCDD030220C9BF5
:103F90001B191A700134202CC6D04B46002BBFD100
:103FA0007B070DD43B07BFD520230C9A1355013452
:103FB000BAE79C429FD21F2C00D881E720249AE7C1
:103FC0002B230C9A13550134AEE7202CACD00C9B5C
:103FD0001B1901343AE0631E012C92D00F9A102A6B
:103FE0002AD0022A2FD01C00D0E7BB060ED4202CEA
:103FF0009AD00C9B1A19013478231370C4E7BB06BE
:104000000DD478230C9A01241370BFE7202C00D123
:104010008AE758220C9B1B191A700134B4E7582305
:104020000C9A01241370B1E70C9A603301241370C9
:10403000ACE7202400265EE7023CBA06E9D40C9ADD
:1040400012191C00D8E70C9A9246534462221A7047
:104050009AE7C04610B5002800D110BD03F0C6F89D
:10406000FBE7C0460B0010B5002802D049681B686A
:10407000984710BDF0B5DE4657464E464546E0B57A
:104080009BB09B46249B89469846259B0B900C929F
:104090004046424619009A4601F0C3FC002800D071
:1040A000D8E0012240465146774B524201F0B4FC21
:1040B000002800D0CEE0012240465146734B5242C8
:1040C00001F094FC002800D0C4E000220023404608
:1040D000514601F08BFC002800D0B9E1424653461E
:1040E0000A9209938023289ADB001A400E92289A9C
:1040F0001A4201D1062326930A9A099B16001343FC
:1041000000D0C7E0289B002500261B0500D49BE1BA
:1041100000230D93269A0D9B9A4200DC9FE1D01A52
:10412000431E26938023289ADB001A43002300278E
:1041300028920D93279B0024BB4200D9DC1B02234D
:10414000289A1A400E92289A134203D07B427B4150
:104150005B421C400D9B002B07D00A9809992A004E
:10416000330001F0DAFB0A90099100220023404657
:10417000514601F03BFC002805D080200006844613
:10418000099961440991289A414B0B9D134004936E
:10419000269B0A9A0293099B039400920193494635
:1041A0005B4628000C9A00F08BF90400002F62D0C7
:1041B000289B220098061F23C0179843631C98462B
:1041C00049465B466530A8470D9B0025DA179C18C9
:1041D000DB0F9A465440013F01E0202D13D00AAA7C
:1041E00094461F23200063440A2101355E1901F023
:1041F0003FF93031317020000A2101F039F92600F1
:104200000400092EE9D805230693002304930A33FA
:104210000393534605970B9F029312AB00934246BC
:104220005B46494638000195FFF72EFE0E9B0400C1
:10423000002B20D00C9BC51A279BAB421BD91E001C
:1042400022005B46494620200135B8470134AE4282
:10425000F6D810E0289B42460493279B49460393D7
:10426000269B0B9802935346009201935B460C9A4F
:1042700000F026F9040020001BB0F0BCBB46B2469B
:10428000A946A046F0BDC046FFFFEF7FFFFFEFFF4E
:10429000FFF7FFFF734B099F9C467800400D604479
:1042A00001F0D2FB704A714B01F055FB704A714B23
:1042B00001F02AFB3B03704A1B0B1A4304000D005C
:1042C000300011006D4B002201F015FB6C4A6D4B64
:1042D00001F041FB02000B002000290001F014FB5B
:1042E00001F0CAFB0D9001F0AFFB674A674B040079
:1042F0000D0001F030FB0022654B01F005FB01F0E1
:10430000BBFB644A0600644B2000290001F023FB3C
:10431000040030000D000F9601F096FB5F4A604BE1
:1043200001F019FB02000B002000290001F0E3FA64
:1043300002000B0006000F0001F00DFB320004002C
:104340000D003B003000390001F0DEFA0022109031
:104350001191544B2000290001F0DFFA0022524B4A
:1043600001F0D2FA02000B002000290001F0D5FA7A
:1043700000224E4B01F0C8FA02000B002000290079
:1043800001F0CBFA0D008021040032003B00002038
:10439000C90501F0B0FA02000B002000290001F06D
:1043A000B3FA02000B001098119901F0B6FA00223E
:1043B000314B01F0A9FA3E4B0F9C9C46644400220D
:1043C000230501F0C8FA05000E0002000B000A9850
:1043D000099901F00BFB00280AD00D9B2800013B36
:1043E00031000D930022304B01F097FA05000E00CA
:1043F000C6270D992B0063318F42BF4128997F4218
:104400000437090500D495E6334300D182E6099CC0
:10441000284A2100284B0A9801F0F6FA002808D013
:1044200000222100254B0A9801F0E0FA002800D074
:1044300070E6269B002B00D17CE60E9B5A1E934112
:10444000269AD31A269375E6002304270D9371E666
:1044500043460A9380231B065344099342E60023F4
:1044600026935FE601FCFFFFFB799F501344D33F87
:10447000B3C8608B288AC63F0000F03F0000F83FB9
:1044800061436F63A787D23F71A379094F930A40B5
:104490000000E03F1655B5BBB16B0240EF39FAFEA4
:1044A000422EE63F00002C4000002440000018404F
:1044B000FF0300002D431CEBE2361A3F80842E419F
:1044C000F0B54E46DE4657464546E0B597B09946AC
:1044D000209E219F229B8346984607910C923B0089
:1044E00032003000390001F09CFA002800D0A9E128
:1044F000012230003900CA4B524201F077FA0028FD
:1045000000D0E1E0012230003900C64B524201F0F8
:1045100083FA002800D0B7E0002230003900C24BF7
:1045200001F07AFA002800D099E00022300039002A
:10453000BE4B01F05BFA002800D090E0002200237F
:104540003000390001F052FA002800D0B1E0002319
:104550000D93249B5B0501D40623984608AB9C462B
:104560001722002430234146624404E001341355ED
:104570000139202C01D00929F8D8884630003900AB
:1045800001F07AFA4346DA00A94B05009B181A6835
:104590005B680892099301F057FA02000B003000A3
:1045A000390001F0A8F9089A099B01F0D4F90A90A2
:1045B0000B9101F085FA824601F042FA02000B00ED
:1045C0000A980B9901F097F900229A4B0A900B91E7
:1045D00001F022FA002800D1C0E001239C46E24409
:1045E000504601F02DFA02000B000898099901F0DD
:1045F00003FA002802D000239A4601354346002BD7
:104600006AD008AB17269C4608956644554614E0C8
:1046100001235B4243440A2128009A4600F028FF08
:10462000013430313719397028000A2100F020FF99
:10463000092D00D8D0E0D0460500202CE8D10EABE3
:1046400098460323249A1340012B00D196E020239F
:10465000249A01930392239A434602921EE0249BDC
:1046600058460493239B00960197039343460C9A64
:10467000029307994B46FFF7FDFC17B0F0BCBB4611
:10468000B246A946A046F0BD249B5B070ED4032288
:10469000694B249901920391239902910093584602
:1046A0004B460C9A0799FFF7A1FBE6E70422634B00
:1046B000EFE73B0032000020002101F01CF901234C
:1046C00006000F000D9344E7249B0393239B029362
:1046D000042301935A4BE1E7280001F0B5F90200E9
:1046E0000B003000390001F006F9524B00220600A1
:1046F0000F0001F07BF90EAB984600280AD100228A
:10470000300039004B4B01F087F9002802D1EB074C
:1047100000D50135202C94D008AA944617232800F0
:1047200063440A2101341E1900F07AFE303128005A
:1047300031700A2100F074FE051EEBD10323249A88
:104740001340012B1BD0202C00D180E70D9B002BA8
:1047500035D02D224146631C0A5579E700220A987C
:104760000B99344B01F042F9002800D046E753463C
:10477000002B51D101239C46E2443FE72024239B98
:10478000002BE0D00D9B002B03D1249A0C33134255
:1047900002D0239B013B2393239BA342D3D908AB95
:1047A0009C46172230236244202C00D14FE72399E6
:1047B000013413558C42C6D0202CF8D147E7249BF6
:1047C0005B0724D4249A2300120700D440E7202258
:1047D000414601330A553BE75746089D202C00D13E
:1047E0002DE7220030214046002F09D00132B1547C
:1047F000202A00D123E7D3431B191B18002BF5D126
:104800000EAB98462E234146541C8B5482E72B2234
:104810004146631C0A551BE7DB0700D4EEE6A9E717
:10482000FFFFEFFFFFFFEF7F65CDCD4165CDCDC130
:1048300018E300100000E03F1CE1001020E1001030
:104840002CE10010249B0393239B029303230193E9
:10485000004B23E728E10010F0B5DE464E465746F0
:104860004546E0B59FB01C00289B91460993C94A74
:10487000C94B8B4608901A60002900D118E200232A
:1048800020789A46002800D11AE226001D005C46D6
:104890000AE02A006F1C4B46089D2100A8473D00F6
:1048A00001363078002870D02528F2D110239B469D
:1048B000083B9A46043B9846023B00219C46721CEA
:1048C000107816000300203BDBB2102B03D8B34F47
:1048D0009B00FB589F460300303B092B32D9002335
:1048E0000A932A2868D0002398462E283ED0030039
:1048F000683BDBB2122B1CD8A94A9B00D3589F46B9
:10490000012301321943DBE7634601321943D7E73C
:10491000434601321943D3E75B4601321943CFE7DF
:10492000534601321943CBE780235B00707819436B
:1049300001360300253BDBB2532BAAD8994A9B00D2
:10494000D3589F4600270300B800C0190136400025
:10495000C018337830381A00303A0700092AF3D9E2
:104960000A901800002398462E28C0D18023707822
:10497000DB0019430300303B721C092B00D8A1E176
:104980002A2800D1B2E11600B1E7A346AA462C00BE
:10499000D14503D801235B424B449A464B465246CD
:1049A00059460020089DA84720001FB0F0BCBB4618
:1049B000B246A946A046F0BD099B40CB0A96002E00
:1049C00003DB50780993561C8DE728380143704269
:1049D0000A9009935078561C85E7782800D1DFE1CA
:1049E000582800D14CE26F2800D14FE3622801D152
:1049F00000F030FC10230A009A430B92692801D082
:104A000000F0A9FC0A230C934B0500D5D0E10B9ACA
:104A1000802311009B0019408B461A4200D0A1E26E
:104A2000802311005B0019408A461A4200D0B6E389
:104A300013005B0600D5EDE2130009991B0601D4B3
:104A400000F076FC08C91BB2D8171A18424092B27F
:104A500009919346DA0F1292002B09D1802310227C
:104A60000B99DB000B4091430B91002B00D0E4E24B
:104A70000B9A6123920600D541230EA91F228C4672
:104A8000DBB262440A3B5F461395A34655460C9C35
:104A9000B2460D9316000AE03033DBB20135735590
:104AA000A74200D2EDE2202D00D1EAE2070021006A
:104AB000380000F0DDFCCBB20929EDD90D9A9446FF
:104AC0006344DBB2EAE780239B0070781943013628
:104AD0002FE77078682800D1CDE180230136194393
:104AE00027E770786C2800D1BFE180235B00194371
:104AF00001361EE7462800D19BE10722099B04915D
:104B0000073393430A9A19000392424602920CC952
:104B100008980092019309912A004B462100FFF763
:104B2000CFFC01360500BCE62A006F1C4B46089DF1
:104B300021002520A84701363D00B2E68B0700D4AE
:104B4000ADE1099B2A009A466B1C9846534601CB5F
:104B500021009A46089F4B46C0B2B8470A9B9C4624
:104B60006544012B00D886E2089B4746B0462600E4
:104B70004C4699463A002300013731002020C847AF
:104B8000AF42F7D1A1465346340046460993013659
:104B900087E6C04659480010D8AB002034E1001029
:104BA00078E10010C4E10010099B04CB9B4643460A
:104BB0000992002B00D1C6E013789C46002B00D14F
:104BC000BDE34346013B099A0133D0180A9F130005
:104BD00001E0834203D05A780133002AF9D1099ABF
:104BE0000A979B1A0B9380230A00DB001A400C9251
:104BF000194204D00B9B434501D943460B93022332
:104C00001A000A400D920B4200D187E1604600284D
:104C100000D168E10C9B002B00D10DE1A844C246F5
:104C2000099B57465B1B9846089BB2462A00260004
:104C30004C46994609E023003100551CC8474346BD
:104C4000585D002800D126E12A009742F3D1A14601
:104C50003D00340056460D9B002B00D043E15B46DF
:104C6000013609931DE6099B1A0008CA9246002BDB
:104C700048D0212211438B460EA884461F2161444F
:104C8000099500220F27A4460D0002E0202A0CD02F
:104C90000B003C001C4020003730092C00D807389E
:104CA0000132A85419090F2BF0D86446099D32E04F
:104CB000DC4B2078089300239A46002800D0E4E5D6
:104CC000002465E6434606000A9F9800C01801329A
:104CD000400080191678030030003038303B092836
:104CE000F3D93000984616000A9700E6099B023671
:104CF00004CB9046D2434046D217104080460993D9
:104D00003078F4E5102208009043113210438346B6
:104D100000224905B0D55B46069308230593434618
:104D20000493102303930023029316AB0192009384
:104D30002A004B4621000898FFF7A6F853460500C5
:104D400001360993ADE513789C46002B00D1F7E2BC
:104D500002235B4237E7202302009A43472A04D10B
:104D600080231B01194302239843452801D12023A6
:104D700019430722099B0491073393430A9A1900A8
:104D80000392424602920CC908980092019309913D
:104D90002A004B462100FFF76DF90136050080E53A
:104DA00010230C930C230A009A430B924B0503D556
:104DB00001230B9A9A430B92692800D127E66428B5
:104DC00000D124E60B9A802311009B0019408B46EA
:104DD0001A4200D066E1802311005B0019408A4628
:104DE0001A4200D039E213005B0600D53CE1130003
:104DF0001B0600D4A6E2099B04CB1204120C9346B6
:104E000009935B46002B00D09AE10B9A10331100F6
:104E100099430B91520500D492E100239A460B9BD3
:104E200006930A9B0593434604930C9B039300232C
:104E30000CE12023194360E6099B0A9A5B1B984604
:104E40004B4691461F00B2462600089C2A003B00B4
:104E50003100A04743460135585D0028F6D14A4647
:104E60003400B94656460A92F5E6C0239B00B07856
:104E7000194302365DE5C023B0781943023658E580
:104E80000C230A009A4314331A43103B0B920C93E1
:104E90004B058DD496E7A14634005646DBE60A9AC8
:104EA000012A00D853E26B1E9F18089BB0462600CB
:104EB0004C4699462A002300013531002020C8477E
:104EC000BD42F7D1A14634004646099B3A0001CBCA
:104ED000210098467D1C4B46089FC0B2B847434608
:104EE00001360993DDE40B9B0A9AA8469A4200D842
:104EF000B5E694466544ED1A089B4746B046260041
:104F00004C4699463A002300013731002020C8471B
:104F1000AF42F7D1A14634004646A0E60B9A0A9963
:104F2000531C914200D814E24B199B1A1F00089B96
:104F3000B24626004C4699462A002300013531002E
:104F40002020C847BD42F7D10A9BA14601330B93ED
:104F5000099B34001B7856469C466046002800D0CA
:104F600058E67CE60722099B0733934301329446B7
:104F70009C4462465F6809921A68FB17109311936C
:104F800010981199030053400E930B007B400F9330
:104F900094460E9A0F9B121A8B410E920F93FB0FA1
:104FA0006246129300233A439B463DD00B9A6123FD
:104FB000920600D541230022DBB20EA90A3B8C46A3
:104FC00092460D9343461F326244139515965546FB
:104FD0000E9E0F9FA24690460C9C14930CE030321C
:104FE000D2B2434601355A55BB4500D18AE1202D46
:104FF00000D18AE106000F002200002330003900B2
:1050000000F078FAD2B2092AE9D90D9B9C46624495
:10501000D2B2E6E7FF23099904C913401A000991A7
:1050200017E5C046E93D00100B9A10331100994373
:105030000B915205BAD500239A460B9B06930A9B07
:105040000593434604930C9B0393129B0293534690
:10505000019316AB2A00009321004B460898FEF7F7
:1050600013FF013605001CE4FF22099B02CB11400F
:105070008B460993C5E65346454609930136FFF72B
:1050800010FC56465C46AA46139DD6E708230C93AF
:105090000B910B99642800D084E60B9B5B0500D52F
:1050A00086E6B4E40722099B073393430132944612
:1050B0009C44624609921A685B6810009B46130084
:1050C0005A46134307D10B9A1033110099430B91A1
:1050D000520500D5A1E60B9A6123920600D5412323
:1050E0000022DBB20EA90A3B8C4692460D93434642
:1050F0001F3262445F461295A34655460400B246ED
:1051000090460C9E13930DE03032D2B243460135E7
:105110005A550023BB4200D100E1202D00D100E10F
:1051200004000F00320000232000390000F0E2F9F3
:10513000D2B2092AE8D90D9B9C466244D2B2E5E777
:105140000B9A6123920600D54123DBB20EA90A3BDC
:105150001F228C460D93230062445C461295170073
:1051600055469B46B2460C9E08E03033DBB2013513
:105170007B55B4420ED3202D0CD00400310020000A
:1051800000F076F9CBB20929EFD90D9A9446634421
:10519000DBB2ECE756465C46AA46129D3FE6099B09
:1051A0001A0008CAD91713925A184A409246DA0FC1
:1051B0001292002B08D1802310220B99DB000B40A8
:1051C00091430B91002B2BD10B9A6123920600D5B2
:1051D00041230EAA1F279446DBB20A3B0D95674474
:1051E0005D460993A3465446B2460C9E08E0303310
:1051F000DBB201357B55B4420ED3202D0CD0040018
:105200003100200000F034F9CBB20929EFD9099A16
:1052100094466344DBB2ECE756465C46AB460D9DD4
:105220000B9B2A0006930A9B210005934346049397
:105230000C9B08980393129B013602935B460193E3
:1052400016AB00934B46FEF71FFE139B0500099318
:10525000FFF727FB02230C931AE7099B04CB924626
:105260001293002A08D1802310220B99DB000B40F7
:1052700091430B91002B2BD10B9A6123920600D501
:1052800041230EAA1F279446DBB20A3B0D956744C3
:105290005D460993A3465446B2460C9E08E030335F
:1052A000DBB201357B55B4420ED3202D0CD0040067
:1052B0003100200000F0DCF8CBB20929EFD9099ABF
:1052C00094466344DBB2ECE756465C46AB460D9D24
:1052D0000B9B2A0006930A9B2100059343460493E7
:1052E0000C9B08980393002302935B46019316AB33
:1052F00000934B46FEF7C8FD129B0500099301364B
:10530000FFF7CFFAB44200D871E6149B54460E96CC
:105310000F97AA469846159E139D8EE6A64200D882
:10532000FBE6139B56469846AA465C46129D76E5D8
:1053300008C9D8171A1842400991FFF78AFB0023C1
:105340000B9350E4099B04CB9346099359E52F0036
:10535000BBE50B9301E6063B0C939AE600B585B0DE
:105360000391012102900093034813004A4202A9CD
:10537000FFF772FA05B000BD6540001010B5094A8C
:105380000300146884B0002C08D001220091064864
:10539000524203A9A047012004B010BD01F076FFDE
:1053A0000020F9E7D8AB0020554000100148042147
:1053B000014B184790930020DD530010142310B5C3
:1053C0000100188804331B88984710BD162310B5B8
:1053D0000100188802331B88984710BDF8B547466E
:1053E000CE4680B50F1E19D014239946043304000D
:1053F0000025012698464B461888434621681B889D
:10540000984701C4431E9841013540420640AF42CF
:10541000F1D13000C0BCB946B046F8BD0126F8E76E
:10542000124A936F9B0815D29066D166002905D069
:10543000FFE7FFE7FFE7516F106F704704B580216A
:105440000906C2175140002800D0C84308F060FA8E
:10545000002104BDF0B5146E556E576F166FFFF73F
:10546000E3FF1466556657671667F0BD000000D06D
:10547000114A936F9B0813D210665166002905D01C
:10548000FFE7FFE7FFE7516F106F704704B5002893
:1054900001D00020C04308F03BFA002104BDC04603
:1054A000F0B5146E556E576F166FFFF7E5FF146673
:1054B000556657671667F0BD000000D094464E4A07
:1054C000926F9208624601D230E0C046F0B54A4E73
:1054D000B56F6D08FCD3346E756E776F366F00F064
:1054E00025F89446444A146655665767166762461F
:1054F000F0BDC0469446404A926F9208624601D27F
:1055000058E0C046F0B53C4EB56F6D08FCD3346E24
:10551000756E776F366F00F04DF89446364A146614
:105520005566576716676246F0BDC046002B24DB00
:1055300011D000293EDA00B5C943404200D1013103
:1055400000F038F8C943404200D10131DB435242F8
:1055500000D1013300BD002AEBD1002801D1002980
:1055600005D00020C90FC90701D1C043410800B5CB
:1055700008F0C6F90022002300BD00B500290ADBAF
:10558000DB43524200D1013300F014F8C9434042DA
:1055900000D1013100BDC943404200D10131DB439C
:1055A000524200D1013300F005F8DB43524200D1F2
:1055B000013300BD002923D1002B18D1002A0CD0C3
:1055C000BC460D4F38667A6600210023FFE7FFE7EF
:1055D000FFE77A6F386F67467047002801D00748A9
:1055E000010000B508F08CF90022002300BD020084
:1055F0000B00002000217047000000D0FFFFFFFFDC
:10560000002B00D0BFE0130C28D1002AE7D080B4D3
:10561000114F39667A66FFE7FFE730B4040C7B6F01
:10562000396F1B0423433B667A66FFE7FFE7FFE71A
:10563000C04684B27B6F3D6F1B0423433B667A6692
:10564000FFE7FFE7C04600232C042D0C7A6F386F6C
:1056500000196941B0BC7047000000D0F0B5944615
:105660000025140E01D112020835140F01D11201C8
:105670000435940F01D192000235D40F01D15200AC
:105680000135D40B0134254F7C66254C3C660E0C4D
:1056900093B2FFE7FFE7FFE73C6F6643360C770303
:1056A000BE467343DF0B5B04C01AB941130C73434E
:1056B000DB18C91ACE086643360CB64493B273435E
:1056C0001F0F1B01C01AB941130C73431F0B1B059D
:1056D000C01AB941860D8F023E436643360C092D30
:1056E00024DB520A7243801A7703460A6643360C5B
:1056F00016235B1BDE40DF40BF1964466643821BF6
:105700007046043506330100D940A840C01900D3C3
:105710000131A24206D20023F0BD0000000000D0FB
:10572000FFFFFFFF121B0130F3D3F1E709277F1BB7
:10573000FE406446A2B27243801A00D20139220CA4
:105740007243130C1204821A99410B0070460435FF
:1057500013370100F940A840801900D30131002B14
:1057600002D1A2420AD2F0BD013000D30131121B96
:10577000FAD2013BF8D1A24200D2F0BD013000D3F1
:105780000131121BF7E7F0B51C0C00D080E00CB41F
:1057900000251C0A04D11B02160E334312020835E1
:1057A0001C0B04D11B01160F3343120104359C0B53
:1057B00004D19B00960F334392000235DC0B02D1DB
:1057C00092185B4101351C00971864410134464F23
:1057D0007C66464C3C660E0CFFE7FFE7FFE7C046E1
:1057E0003C6F6643360C7703BE4697B27743C01BC7
:1057F00000D20139C01B00D201399FB27743C91BC7
:10580000C91B170C77437E04FF0B801BB941CE08E0
:105810006643360C0C2D33DBB644120B1F053A439E
:105820001B0B97B27743C01B00D201399FB277435D
:10583000C91B170C77433E043F0C801BB941860DF2
:105840008F023E43664329277F1BFE400C3D77466F
:10585000AF40BF1930BCA2B2ABB272437343801ADF
:105860009941220C7243130C1204801A99410200D0
:105870000B000137001BA941F9D2781E0021F0BDB1
:105880000C277F1BFE4077467F0BAF40FF19E0E7F8
:1058900000245D1C07D0144F7D663966FFE7FFE7E3
:1058A000FFE7FFE73C6F95B29EB265436643401B3E
:1058B000B141150C1E0C6543664336042F0C3E4364
:1058C0002D04401BB141994204D202000B0020007C
:1058D0000021F0BD01D19042F7D3801A99410134E3
:1058E0009942F2D3F6E70000000000D0FFFFFFFF6F
:1058F00048404140484018B41B4B5B68FC4601934C
:1059000008BD04DFDB65001018B4174B1B68FC46AC
:10591000019308BD00DFE56500109446134A926FBD
:10592000920809D2624618B40F4BDB68FC4601931B
:1059300008BD0CDF9D6800100C4AF0B5146E556E62
:10594000576F166F6246FFF7EEFF084A14665566FA
:1059500057671667F0BD18B4034B9B68FC4601936C
:1059600008BD08DF41670010489F0020000000D0FC
:10597000FFB550404240504059404B40594000E034
:10598000FFB5154F4C00640D03D0BC4204D10C038D
:1059900014D80020090D09055C00640D03D0BC4239
:1059A00004D11C030AD800221B0D1B0501264B4005
:1059B00009D44B4003D58B4200D18242FFBD9942AE
:1059C000FCD19042FFBD0B43DB1803431343F5D0DA
:1059D000C9434918FFBD0000FF07000000B5FFF7ED
:1059E000CFFF01D0002000BD012000BD00B5FFF7B2
:1059F000C7FF804100BDC04600B5FFF7C1FF01D918
:105A0000002000BD012000BD00B5FFF7B1FF01D9A6
:105A1000002000BD012000BD00B5FFF7A9FF8041B7
:105A200000BD012040054A00121804D85A0012187F
:105A300001D8002070470120704700207047000007
:105A40000021002805D17047C1174840401AFAD0FC
:105A5000C90713B5064B1B6898470CBC441CA240F1
:105A60001005120B0349091B09051943114310BD09
:105A70009CAC00201F04000010B54C00620D802378
:105A8000D218DB00D21A5B057E2A10DD9E3A13DAAB
:105A9000CC170903490819435242D140640001342C
:105AA0001532202A05DAD0400843604310BD00209B
:105AB00010BD0846604310BDC80FC018013810BDA6
:105AC00018B4044B5B6AFC46019308BD24DF4D6AA1
:105AD00000100000489F002018B4044BDB6DFC460A
