:020000041000EA
:1000000000B5324B212058609868022188439860DF
:10001000D860186158612E4B002199600221596106
:100020000121F02299502B49196001219960352056
:1000300000F044F80222904214D00621196600F024
:1000400034F8196E01211966002018661A6600F04E
:100050002CF8196E196E196E052000F02FF8012189
:100060000842F9D1002199601B49196000215960AB
:100070001A491B48016001219960EB211966A021F2
:10008000196600F012F800219960164914480160C1
:100090000121996001BC002800D000471248134993
:1000A000086003C880F30888084703B5996A0420EC
:1000B0000142FBD001200142F8D103BD02B5186610
:1000C0001866FFF7F2FF186E186E02BD00000240BE
:1000D000000000180000070000035F00212200005C
:1000E000F4000018222000A00001001008ED00E03C
:1000F00000000000000000000000000074B24E7A12
:1001000000200420F7010010C3010010C5010010F9
:10011000C1010010C1010010C1010010C101001097
:10012000C1010010C1010010C1010010C701001081
:10013000C1010010C1010010C9010010CB01001065
:10014000CD010010CD010010CD010010CD01001037
:10015000CD010010CD010010CD010010CD01001027
:10016000CD010010CD010010CD010010CD01001017
:10017000CD010010CD010010CD010010CD01001007
:10018000CD010010CD010010CD010010CD010010F7
:10019000CD010010CD010010CD010010CD010010E7
:1001A000CD010010CD010010CD010010CD010010D7
:1001B000CD010010CD010010CD010010CD010010C7
:1001C00000BE00BE00BE00BE00BE00BE00F04BF888
:1001D000103800BEF2EB8871F4DB001020DC001058
:1001E0003402001090A31AE700202149086006C8D5
:1001F00081F3088810471F48006800282FD10DA4FC
:100200000ECC002902D000F012F8F9E71A491B4A77
:10021000002000E001C19142FCD1194988471949E9
:1002200088471949884700BEFDE701C901C29A42C3
:10023000FBD3704720DC0010C00000203C9E002053
:100240009C79011000000420000004209C7901101A
:1002500000100420001004200000000070470B482C
:1002600004F0EEFF0047EFF30580C0B270470000D6
:1002700008ED00E0000000D0409E0020DCAC002033
:10028000AD350010450A0010D13600105756000059
:1002900006005250ABB36053B0D400100600525069
:1002A000861C0302C0D40010060052505422A29DA6
:1002B000C8D4001005005250DE65F4689C79011026
:1002C000F8B5C04610B5064C2378002B07D1054B76
:1002D000002B02D0044800E000BF0123237010BDB2
:1002E00048A1002000000000C0CA0010044B10B557
:1002F000002B03D00349044800E000BF10BDC046F6
:10030000000000004CA10020C0CA001010B5041E5F
:1003100005D009F083FD210004F0C4FF0C0020008B
:1003200010BDC04670B50400884206DA0D1A09F007
:1003300075FD290004F0B6FF6418200070BDC046AA
:1003400010B51C00431A0298511A001B584304F0C0
:10035000A9FF001910BDC04600B585B003AB02AAC5
:1003600001A901F0F9FC002801D105B000BD039AF4
:100370000299019801F0B4FCF7E7C046F8B5DE46F3
:1003800057464E464546E0B50600C06C8846914645
:100390009A4601F0CDFD306D01F0CAFDB06C01F060
:1003A000C7FD01231A00F16CD0278A403F067A620C
:1003B0001A00316D35008A407A62B26C3400934085
:1003C0007B6201239B460C352834286801F0B0FD80
:1003D0005A4608CD9A407A62AC42F6D14823D027DB
:1003E0009B460125B3443F06206801F0A1FD2A0089
:1003F00008CC9A407A62A345F6D141462A000231E0
:10040000890071184B689A407A614A460A32920014
:1004100093592A009A4053467A61002B35D0012B1C
:100420000ED0022B18D12B00F26C93407B61B36C81
:100430009D407D61F0BCBB46B246A946A046F8BDD2
:10044000154805F0D5FF5346F26C934052467B6148
:10045000336D9A407A61EDE7032B07D12B00B26C24
:1004600093407B61336D9D407D61E3E7042B03D1B5
:10047000336D9D407D61DDE7052BDBD10123B26C3F
:100480009340D02212065361D4E7044805F0B0FF30
:10049000F36C9D407D61CDE7CCCA0010C0CA00104E
:1004A000F8B501242E4805F0A3FF2E4B2E481979EC
:1004B00006F040F82D4D286801F03AFD2C4E3068CA
:1004C00001F036FD22002B68D0259A402D06AA6245
:1004D00022003368274F9A403868AA6201F028FD4D
:1004E000254E306801F024FD22003B68234F9A40DE
:1004F0006A622200336838689A406A6201F018FD27
:100500001F4E306801F014FD22003B6828209A40FD
:1005100033686A629C406C6205F004FE0023194C4B
:100520000370C360036143618361C361036243621B
:100530002060032001F0FCFC08236B62124B1B7847
:10054000002B00D1F8BD206801F02AFB206801F0E3
:1005500009FB206801F040FB0C4805F049FFF1E77A
:10056000DCCA00104C04002008CB00103C04002022
:1005700040040020F8920020FC9200204404002057
:1005800048040020E8AB0020D6AC00201CCB0010B3
:10059000F0B5C64600B5464C94B0206801F000FBAB
:1005A000206801F0DFFA206801F040FB2368414831
:1005B000D969414B196005F0BDFF21683F4E8B6939
:1005C0003F4F33600B6A4A6A3B603E4B3E48984659
:1005D0001A60CB680A69496905F0ACFF4346326886
:1005E0001B683968394805F0A5FF2422002102A8BC
:1005F00005F08CFD242200210BA805F087FD78234F
:1006000002A80793773B059309F0F2F943460500EA
:100610000C001B680BA8643310933B68013B0F93DD
:10062000336801930E9309F0E3F92A00230008F0E0
:100630000DFE05F05BF92649040004F033FE0500C9
:100640000100244805F076FF234E2448715D05F033
:1006500071FF234B715D234A1B681160002B01DB86
:1006600019001360204805F065FF204B9C421BDDFC
:1006700000230024F25C013351424A41A4189D42F8
:10068000F8DC0321200004F00DFE0D0021001848C5
:1006900005F050FF174B290017481D6005F04AFF71
:1006A00014B080BCB846F0BD00250024EEE7C0467B
:1006B000E8AB00202CCB0010340400201093002065
:1006C00030040020380400203CCB00104CCB00103C
:1006D0008051010060CB00104C0400207CCB001046
:1006E0000493002058A70020A0CB00107F510100E8
:1006F000ACCB001054A70020C0CB0010F0B5AF4821
:1007000083B005F075FE0A2005F022FEAC4805F026
:100710006FFEAC4B1B68062B2ED8AB4A9B00D35800
:100720009F46AA4805F064FE8B20800005F0FAFC85
:10073000040000F0F9FA8B20A54F80003C6005F022
:10074000F1FC040000F0F0FAA24DA34B2C601A68F3
:10075000A24CA34BA34E19682368386800933368F2
:1007600000F01AFBA04AA14924683368126809689E
:100770002868009400F010FB03B0F0BD9C4805F021
:1007800037FEA42005F0CEFC040001F05FF8994F7D
:10079000A4203C6005F0C6FC040001F057F8964D1B
:1007A0008D4B2C601A688D4C8D4B8E4E19682368CA
:1007B00038680093336801F05DF824688A4A8B49F1
:1007C0003368126809682868009401F053F8D3E789
:1007D0008A4805F00DFE814D8948296805F0AAFE7A
:1007E0009020400005F09EFC7B4B7E4F1A687C4BAE
:1007F000040019682B6800933B6800F00FFC902000
:10080000804E4000346005F08DFC0400764A286874
:1008100076493B68126809680090200000F0FEFBF2
:10082000794D30682C6000F01DFC286800F01AFC3F
:10083000A2E7764805F0DCFD9C20400005F072FC44
:10084000040000F0B7FC9C20714D40002C6005F0C6
:1008500069FC040000F0AEFC6E4E5F4B34605F4CF0
:100860005F4A216828685F4D1B68126801912968FA
:100870000091012100F0BAFC2168042900D18BE02D
:10088000594B5A4A1B6812683068019129680091D7
:10089000002100F0ABFC6FE75F4805F0A9FD5F4861
:1008A00005F040FC040000F0F5FD5D4E5B4834604F
:1008B00005F038FC040000F0EDFD474B594D1A6877
:1008C000474B3068196804232C600093033B00F009
:1008D0005DFE424C434B2468434A44491B681268FE
:1008E00009682868009400F051FE45E74E4805F07D
:1008F0007FFDA02005F016FC040001F05BF84B4FD3
:10090000A0203C6005F00EFC040001F053F8484DB7
:10091000314B2C601A68314C314B324E19682368C8
:1009200038680093336801F053F824682E4A2F4941
:100930003368126809682868009401F049F81BE7D9
:100940003C4805F055FD9220400005F0EBFB04000B
:1009500000F0ECFE9220384F40003C6005F0E2FBD6
:10096000040000F0E3FE354D1B4B2C601A681B4C55
:100970001B4B1C4E1968236838680093336800F0DD
:10098000F5FE2468184A194933681268096828680E
:10099000009400F0EBFEEFE6294B186809F034FAFA
:1009A0002168114B114A1B6812683068019129684F
:1009B0000091012100F01AFCDEE6C046CCCB00100D
:1009C000E0CB001054A7002094CC001080CC001085
:1009D00048AC00204CAC0020F892002058A7002022
:1009E0003C04002034040020FC920020400400203D
:1009F00070CC001068AC00206CAC0020ECCB001078
:100A000000CC001050AC002054AC002014CC0010DE
:100A100058AC00205CAC002028CC0010A4040000DE
:100A2000ECAB0020F0AB002040CC001060AC00200C
:100A300064AC002058CC0010E0AB0020E4AB0020F8
:100A4000B0AC0020F0B5DE4657464E464546E0B510
:100A5000012083B0FFF780FC7C4A7D49906A936A4D
:100A60001B1A8B42FBD97B48FFF776FC05F06EFD25
:100A7000794B1B78002B00D0CDE0FFF711FDFFF77D
:100A800087FD764B1868764B1B68C018754B1B6842
:100A9000C018754B1B68C018744B1860744B1B78DA
:100AA000002B01D0734B186809F0AEF9724B734CF0
:100AB0009B46734B226819685B4672481B68FFF7B8
:100AC0005DFC714805F094FC5B467048196805F0C0
:100AD00031FD21686E4805F02DFD80216D4805F03F
:100AE00029FD6D4BD0259A461A786C4B0124994606
:100AF0006B4B6C4F98466C4E2D06484621000068A3
:100B00006B68814040460068C3401C4200D088E0CA
:100B10006961210038686B6881403068C3401C42BD
:100B200000D088E06961002A00D188E05B461B683C
:100B3000062B00D988E05D4A9B00D3589F465C4B4A
:100B40001B681800019300F0F9FE5A4B1B6818004F
:100B5000019300F0F3FE53461A78CEE7564B1B681C
:100B60001800019300F036FE544B1B6818000193E7
:100B700000F030FE53461A78BFE7514B1B6818004F
:100B8000019300F0A9FF4F4B1B681800019300F080
:100B9000A3FF53461A78B0E74B4B1B68180001932C
:100BA00000F074FD494B1B681800019300F06EFDC6
:100BB00053461A78A1E7464B1B681800019300F0D2
:100BC000F5FB444B1B681800019300F0EFFB534604
:100BD0001A7892E7404B1B681800019300F0ACFABA
:100BE0003E4B1B681800019300F0A6FA53461A7892
:100BF00083E73B4B1B681800019300F083F9394BE6
:100C00001B681800019300F07DF953461A7874E7C9
:100C1000643002F081F8002007F0AAFB0028F7D02A
:100C20002BE7A961210038686B6881403068C340B8
:100C30001C4200D176E7A961002A00D076E7FFF7D1
:100C40005DFD53461C7071E7220056E700400540E9
:100C50003F420F0048E80100149300201093002049
:100C6000300400203804002000930020B0AC0020A5
:100C7000089300200C93002054A7002058A70020C0
:100C800034040020F4AB002098CE0010B0CC00104B
:100C9000CCCC0010E8CC0010DAAC002044040020DA
:100CA000F892002048040020FC92002004CD00109F
:100CB00068AC00206CAC0020E0AB0020E4AB00206E
:100CC00060AC002064AC0020ECAB0020F0AB002056
:100CD00058AC00205CAC002050AC002054AC00208C
:100CE00048AC00204CAC00200D480E4B020019000F
:100CF00070B50C3270C970C270C970C209681C33FB
:100D000011600200283232CB32C232CB32C212CB57
:100D100012C2032383640133C3640133036570BDCE
:100D2000F4AB002020CD001010B50400802200217B
:100D300005F0ECF9200080220021803005F0E6F972
:100D4000601C80221249FF3005F0E6F92000813056
:100D500080220021FF3005F0D9F980220023920083
:100D60008321A3500432A3500432A35000228900EF
:100D700063520849200062540231635004316350C9
:100D8000043163500431625488229200A35010BD94
:100D90008CCD00100E020000F8B5CE464746040088
:100DA00080B554480E0017001D0005F021FB8A2372
:100DB0009B00E750043BE650089A0135143BE55090
:100DC00004338125E25032220C33AD00E250002082
:100DD0006159FFF7A7FA082382226351002392008A
:100DE000A3500432A3540133FF33E3580826984636
:100DF0000020671CFF3705000820FFF787FA8300F3
:100E0000FB181A68AD00013EEA51002EF3D14246AC
:100E100081261A60B600A359002B33DD01238827F1
:100E200000259846BF006420FFF770FAE359984206
:100E300055DA4246AB00E250A35901359D42F2DB40
:100E4000002B1FDD88239B00984601232600812765
:100E5000002599468036BF006420FFF757FA4346C5
:100E6000E358984240DA4B4608C6E25901359542AC
:100E7000F2DB002A06DD2000813021009200FF30E5
:100E80000BF016FE81271C48BF0005F0B1FAE359AC
:100E9000002B0ADD0025194EAB00E158300005F0AB
:100EA00049FBE3590135AB42F6DC154805F0A0FAE1
:100EB00081239B009846E358002B0CDD270000257A
:100EC0000E4E8037300002CF05F034FB4346E35826
:100ED0000135AB42F6DCC0BCB946B046F8BDA359FB
:100EE0000135AB429FDCABE7E25901350436AA423B
:100EF000B2DCBEE75CCD001078CD001074CD0010E0
:100F00006CCD001089239B00C258D0231B065B6860
:100F1000F0B5D340C6460121040000B5194203D004
:100F20003B4BC05C002811D0D02109064B68D34050
:100F30000122100018401A4205D1354BE0541A33F3
:100F4000E3589A404A6180BCB846F0BD8225E1541E
:100F5000AD000A3BE1586359994238DC6051083DC5
:100F60006259130040339B0001321B596251914278
:100F700043DD83229200A25C002A3BD11A0020327A
:100F80009200125960339B001A5100293EDD8123E3
:100F900026009B000025984681361E4FFF363800FC
:100FA00002CE05F0C7FA4346E3580135AB42F6DC02
:100FB000194805F0BFFA80239B00E158380005F07E
:100FC000B9FA822389229B009200E358A2581900A3
:100FD000603189000959012904D082210133890037
:100FE0006350A1E78A20800020588140D02000066D
:100FF0008161F2E79A001259C4E76051832001250C
:101000008000225C6A40D2B22254B5E7014FCFE79C
:101010000E02000074CD001080CD0010F0B51D0050
:101020008023C6465B00984600B50E0017000021DD
:101030001A00040005F06AF800234246A350043267
:10104000A3500432A3541933FF33E750043BE65056
:10105000069A083BE55004332000E25080BCB846B5
:10106000F0BDC046F8B506000400451CFF3502205F
:10107000FFF74CF901C4A542F9D188235B00F3586E
:10108000072B07D8274A9B00D3589F46802311225D
:101090005B00F250802524486D0005F04BFA715931
:1010A000224805F047FA7359002B0ADD0024204F2F
:1010B000A300F158380005F03DFA73590134A342FA
:1010C000F6DC1C4805F036FAF8BD15210520FFF7BF
:1010D00029F980235B00F050DCE7802308225B00C5
:1010E000F250D7E780230C225B00F250D2E7802336
:1010F00010225B00F250CDE7802320225B00F250EB
:10110000C8E729211420FFF70DF980235B00F05078
:10111000C0E71F210A20FFF705F980235B00F0508C
:10112000B8E7C04628CE00100CCE00100CCC001042
:101130001CCE001020CE0010F8B58A22D025520017
:101140002D0682586B680400D3400122110019401B
:101150001A4207D184235B00C1541033C3589A400C
:101160006A61F8BD84235B00C35C002BF9D1822740
:101170007F00C3599A001658012E0FD08021822279
:101180004900615801335200A3508B4201DB002318
:10119000A350842301225B00E254E2E7044805F0F7
:1011A000C9F98C235B00E3589E40E359AE61E5E743
:1011B00048CE0010012310B504005B4208C0802215
:1011C000002104F0A3FF200080220021843004F0DD
:1011D0009DFF822200235200A3500832A3502933DE
:1011E000FF33DA3A2000E25010BDC046F0B5CE46DB
:1011F00047460500062080B528601B30FF30285C7C
:1012000083B0002801D107302860962040002A5082
:1012100098228E245200AB500A9B183A0133AB50EF
:101220000B9B64002B51902323385B00E954FF385B
:1012300005F08EF8584805F0DBF8285900284DD005
:10124000431E022B56D9042800D17CE0042800DD7F
:1012500086E02B68002B02DB84225200AB502B1D52
:1012600098461C0001232F00942699468437760067
:101270006420FFF74BF8A959884201DA4B462360F6
:101280000434A742F4D184264448760005F052F98C
:10129000A959434805F04EF90A2005F059F8AB5911
:1012A000002B0BDD00243F4F434602CB380098460D
:1012B00005F040F9AB590134A342F5DC0A2005F0F2
:1012C00047F80A2005F044F8882396225B00520074
:1012D000EA5003B0C0BCB946B046F0BD01210138A8
:1012E000FFF720F8842306305B00E8502859431E9E
:1012F000022BA8D809260523032201210096FFF717
:101300001FF80400022002214042FFF70BF884235B
:1013100024185B00EC50043BFF3B03220121012019
:101320000096FFF70DF80400022002214042FEF76C
:10133000F9FF21181C4805F0FDF88E235B00E858E2
:10134000042800D082E703210738FEF7EBFF84234F
:1013500009305B00E8501433E858042800DC78E7D3
:1013600003230722052100930333FEF7E9FF8E23B1
:101370005B000400E858173BFF3B07220521009360
:101380000433FEF7DDFF01002000FEF7CBFF8423CE
:101390005B00E8505DE7C04650CE00105CCE001008
:1013A00074CE001088CE001074CD0010F8B59626CB
:1013B000D02376001B0682595B68CE464746D34051
:1013C0000125040080B51D4204D01623FF33C75CFD
:1013D000002F16D0D02109064B68D34001221000FF
:1013E00018401A4209D11623FF33E0541B33E35847
:1013F0009A4080231B034A618B61C0BCB946B0464A
:10140000F8BDC554093B9846C158043B9946C3589A
:101410008B4217DD8B00E3185868012804D086231F
:1014200001315B00E150D5E783301B58012BF6D129
:10143000AC3020588340D0200006836180231B03FA
:101440004361ECE7114805F075F843461048E75052
:1014500004F0CEFF8221490063581A002032920026
:10146000A21855604A46A25801336350934208DDE2
:101470006750002A05DD200000219200843004F02E
:1014800045FE4346A259E158C4E7C0468CCE001041
:101490009CCE001070B504008022002104F036FEBE
:1014A000200080223349803004F036FE601C802208
:1014B0000021FF3004F02AFE8023012520005B007C
:1014C000E5500C33E5500C33E5501033E5508130D6
:1014D0000833E55080220021FF3004F017FEC023BE
:1014E0005B00E5500C33E5500C33E5501033E5500C
:1014F0000C33E5504C3380221F49E01804F00CFEF9
:10150000A0239B0080221D49E01804F005FEC023A3
:101510009B0080221A49E01804F0FEFDE0239B00A6
:1015200080220021E01804F0F1FDE0239B00E5504B
:101530000C33E5500C33E5501033E5500433E550DF
:101540001033E550443380220021E01804F0DEFD22
:101550008023DB00E5501033E5501033E5501033A5
:10156000E5500023074A2000A3500432A350064A46
:10157000A35070BDECCE00106CCF0010ECCF00106B
:101580006CD00010840400008C040000F8B5CE4636
:1015900047461D0090260400354B80B5C1500433EA
:1015A000C250344A6B1C08998350F60004328150B3
:1015B0008351314804F01CFF2900304804F0BAFF81
:1015C000A0592F4D810049198025ED00A946803D85
:1015D000A846803DAC4622000023803D6719803D2F
:1015E000A144A044A4446619082804D80D68AF4655
:1015F0004D46ED58156004330432802BF4D1082099
:1016000008214042FEF78EFE1E4B1F4EE050103068
:10161000A0510F2809DD0F250220FEF777FEAB0051
:10162000E050A3590135AB42F6DCC0BCB946B04628
:10163000F8BD4546ED581560DDE725008135FF35DD
:10164000ED581560D7E725008035ED581560D2E7D5
:10165000651CFF35ED581560CDE7FD581560CAE7EC
:10166000F5581560C7E76546ED581560C3E7C046F5
:101670009C04000094040000A4CE001074CD00105F
:10168000ACCE00108C04000084040000234B012128
:10169000C258D0231B065B6870B5D34004001942C2
:1016A00004D09223DB00C05C002810D0D0210906B2
:1016B0004B68D3400122100018401A4206D19223F1
:1016C000DB00E0541033E3589A404A6170BD912525
:1016D000134AED00E154A25863599A420ADD9A0078
:1016E0001259012A0CD091220133D200A3500B4B86
:1016F000E258DBE760510B4804F07AFE6359EEE7ED
:101700009423DB00E35808489A40D0231B069A61D3
:1017100004F06EFE9123DB00E358E4E79C04000034
:1017200084040000D0CE0010E0CE001010B50400FC
:101730008022002104F0EAFC200080220A49803047
:1017400004F0EAFC802200235200A3500432A3508C
:101750000432A3500432A3500432A3540432A350E1
:1017600004322000A35010BDECD00010F0B50500ED
:10177000902040002A508E22C6465200A9500133C4
:10178000083AAB508C23802700B5069A5B00EA50DC
:101790001422143BFF3B7F00EB510433FF33EA502C
:1017A00004332C00002698460820FEF7AFFD434680
:1017B000E850030008331B01EB180FCBE3602060F7
:1017C0006160A260EB5901361034B342ECDC80BC9E
:1017D000B846F0BD8E235B00C258D0231B065B6861
:1017E0000121D34010B5194204D088235B00C45CAA
:1017F000002C10D0D02109064B68D34001221400E0
:101800001C401A4206D188235B00C4541033C358CD
:101810009A404A6110BDC15408310C3BFF31C35896
:10182000415899420FDD591C9B001B58012B06D1D2
:10183000902464000459A340D0242406A361822389
:101840005B00C150D6E701210023EDE710B58022EF
:101850000021040004F05AFC00238022A35004322B
:10186000A3540C32A3500432A35004322000A350DE
:1018700010BDC046F0B50400A020CE464746225019
:101880009C22581C882380B583B0A1500A9AE0504E
:101890000433E250503B0722012100931E3BFEF728
:1018A0004FFD90232021E0500020FEF73BFD012357
:1018B000800003517F3398467F3B2500902799464F
:1018C0009826A0446420FEF721FDE359984204DAEB
:1018D0004B462B60A3590133A35110354545F1D137
:1018E0008C23E0580C33E358072200930121022394
:1018F000FEF726FD94230026E050231F94279846E8
:10190000864209DA2020FEF701FD80000559012DED
:1019100007D0E0598642F5DB03B0C0BCB946B046FB
:10192000F0BD64200136FEF7F1FC312802DCE059FD
:101930006560EFE743461D60E059EBE7D02370B5E3
:101940009C251B0642595B680121D34004001942C3
:1019500003D08423C05C00280FD0D02109064B6837
:10196000D3400122100018401A4205D18423E054CC
:101970001C33E3589A404A6170BD8026E154A35954
:101980001F2B0EDC99000959012903D08021013356
:101990006350E2E7A02020588140D02000068161FA
:1019A000F4E7A051024804F023FDA3596259E9E786
:1019B0006CD1001010B580220021040004F0A6FBB9
:1019C00000238422A35004322000A35410BDC0463B
:1019D000F0B504009C208C2622509822CE46474623
:1019E0000133A150A351902380B583B00A9A3548A2
:1019F000E25004F0FDFC344DA159280004F09AFD9A
:101A00000F2307220121A05900930A3BFEF798FCFF
:101A10000836A0512D4804F08DFDA159280004F08E
:101A200089FD1F211420FEF77DFC8027E051284806
:101A300004F0DEFCE159280004F07CFDE1590020AF
:101A4000FEF770FC06000100280004F073FD01237E
:101A5000B6003351E359002B10DD802398461D4B0F
:101A60000026994614376420FEF750FCE35998424B
:101A700011DB4346E3580136B342F4DC26008036DE
:101A800002CC280004F056FDB442F9D103B0C0BC2A
:101A9000B946B046F0BD484604F0AAFC3100280023
:101AA00004F048FD6420FEF731FC0100280004F03A
:101AB00041FD0122B300E2504346E3580136B342F0
:101AC000D1DCDBE778D1001074CD001084D1001098
:101AD00090D1001098D100109823C258D0231B0633
:101AE0005B680121D34070B50400194203D08823FC
:101AF000C05C00280FD0D02109064B68D3400122DA
:101B0000100018401A4205D18823E0541433E358DA
:101B10009A404A6170BD84258022E154A2586359DD
:101B20009A4209DD9A001259012A0BD0842201330E
:101B3000A3509823E258DEE76051084804F058FCAF
:101B40006359EFE79C23E35805489A40D0231B06CE
:101B50009A6104F04DFC8423E358E7E7A4D1001018
:101B6000B0D1001030B5002585B00A4C0A4B02AA4E
:101B70001380682102232000009507F0A9FA074B83
:101B800003AA1380682102232000009507F0A0FA21
:101B900005B030BD049400200080FFFF02A0FFFFCD
:101BA00010B50B490B4807F069FA0321102000F02B
:101BB0008FF90321112000F08BF900220121102060
:101BC00000F09EF900220121112000F099F910BDCA
:101BD000801A060004940020F0B5C64600B5104BEC
:101BE00086B0104A049304AB9A8023229A710E4B5C
:101BF0000D2603249846002703AD6E44335D2C70F8
:101C00006B702A000223682140460097013407F0D8
:101C10005FFA0A2CF2D106B080BCB846F0BDC046CF
:101C20003022140604040000049400200F22F0B5B2
:101C30000326012585B0294F6A440400167001234C
:101C400000956821380007F043FA0023A21C6821A0
:101C500000933800073307F0A3FAFA20400001F0A0
:101C60005BF80722A078030913409900C9180F23D5
:101C7000490018400918E078E16007091740B900E9
:101C8000C919184049000918216121790F09374005
:101C9000B800C0191940400040186061607901091E
:101CA0000E40B1008919184049000918A161A179B5
:101CB0000A40E179E2610A091540AA005219194067
:101CC00052005218217A226208098200121852002A
:101CD0000B40D318636205B0F0BDC04604940020E9
:101CE000F0B583B005000E00140000F0AFF9002835
:101CF00001D003B0F0BD154F01223B000121009738
:101D0000053001F005FD33002A0000940121104840
:101D100001F0ECFE21002800714303F0EBFA04000F
:101D20000C4B002200930221042001F0F1FC23005F
:101D3000002201210094052001F0EAFC3B00022270
:101D400000210097062001F0E3FCD2E7006CDC02E2
:101D500000800240001BB700F0B5DE4657464E46F5
:101D60004546E0B5070085B0042003930191029237
:101D700001F0B6FEFA21890003F0BCFA3223824654
:101D8000FF33994686005644B6014F4B4F4AF3182D
:101D9000072493420ED901235B429C465346E144FB
:101DA000F61A4B46002BF0D100205DE0002900D14F
:101DB00086E0062421003000614303F09BFA87424D
:101DC00042D0631E9846012CE5D01D0065433000CB
:101DD000290003F08FFA87424DD0A31E9B46022CA8
:101DE0004FD02D1B2900300003F084FA87424AD0DF
:101DF000E31E9B46032C61D02D1B2900300003F00D
:101E000079FA874243D0231F9B46042C45D02D1BD3
:101E10002900300003F06EFA874240D0631F9B46D2
:101E2000052C42D02D1B2900300003F063FA8742B5
:101E30003DD04346052B3FD03000E91F03F05AFA4E
:101E40008742B3D00624B5E70029BAD1A04642465E
:101E5000012073019B1B9B009E19019BF6001E60D5
:101E6000029B1C60039B1A6005B0F0BCBB46B246E7
:101E7000A946A046F0BD0029E9D0A31E9B46022C2E
:101E8000AFD1012496E70029B2D1D846DFE7002977
:101E9000FBD0231F9B46042CB9D103248AE70029D9
:101EA000F3D0631F9B46052CBCD1042482E7002994
:101EB000EBD04346052BBFD105247BE7022479E70D
:101EC00001239846C3E7C046508EF4FF50F80C003B
:101ED000094A830094464022634410B51C68C00040
:101EE0006240C02414408022520113431C60034B03
:101EF0009C466044416010BD04C001400040014068
:101F00000A4B80009C4604236044002901D00C2326
:101F10000821002A00D10B00026853400C221A400D
:101F200080235B01184302607047C04604C0014033
:101F30000123D0228340120693629361094A8300F1
:101F40009446402263441968C0004A40C0211140B1
:101F50008022520113431960034B9C4605236044C1
:101F60004360704704C001400040014070B5EFF38A
:101F7000108C72B60D4D2B68002BFCD0BFF35F8F19
:101F80000724CB08C618C05C01230C40A3401C00EA
:101F90000440034207D103433370BFF35F8F2C60CB
:101FA0008CF3108870BD100001F094FB2C0100D060
:101FB000F8B54746CE46884680B5EFF3108C72B62A
:101FC000214D2C68002CFCD0BFF35F8F9A422CD897
:101FD000D4080727055D061901241740BC402C4290
:101FE0001FD007210127894609E0D408055D06199D
:101FF0004C4639001440A1400C00294211D0013256
:102000009342F2D201204042BFF35F8F00220E4B79
:102010001A608CF3108800280FDBC0BCB946B046AC
:10202000F8BD2C4310003470EEE7BFF35F8F002340
:102030002B608CF31088012040424346002BECD0EB
:10204000089801F047FBC0462C0100D0024B1868ED
:102050008007C00F7047C04600C006400021044BF7
:10206000044ABFF35F8F02C39342FAD17047C04660
:10207000000100D0800100D0044A1078431CDBB27C
:10208000172B00D9102313707047C04615930020FA
:1020900000B5054B83B00100009318221F230348AD
:1020A000FFF786FF03B000BDC4D1001028A70020B1
:1020B00001238340002904D0034A1360034A1360BC
:1020C0007047034A1360FBE780E200E000E100E0B4
:1020D00080E100E001238340014A13607047C0465D
:1020E00000E200E0084B10309B688000C358002BD2
:1020F00007D0064A00209B1A2F229A424041C0B2C4
:1021000070470020FCE7C04600ED00E01893002077
:10211000024B10309B688000C058704700ED00E013
:1021200070B50D00EFF3108672B60F4A1368002BDE
:10213000FCD0BFF35F8F0D4B10309B6884001B59A0
:102140000B4A934203D09D4201D001F0DBFA074BCA
:102150009B681D51BFF35F8FBFF35F8F0022024B5F
:102160001A6086F3108870BD240100D000ED00E0F5
:10217000CD010010F0B557464E46DE464546E0B567
:1021800085B0060002911700EFF3108B72B6674A14
:102190001368002BFCD0BFF35F8F0025644B5D57A5
:1021A0009A46002D00DAA5E06B00624C03935B19A0
:1021B0009B009846A146C1444B4652469B79103637
:1021C00013705D4BB2009B68019299580B1B2F2B2B
:1021D00034D95A4B994200D0A5E0039B584A9C46FB
:1021E000584B6544AD006353434602336519E41808
:1021F000554B0121043B1B1B1B055B0D13436B80DF
:10220000524BEF71AB80FF23AB71029BAB604B462F
:102210000B431900484B019A9B689950BFF35F8F9D
:10222000BFF35F8F0022414B1A608BF3108805B01B
:10223000F0BCBB46B246A946A046F0BD01200A004C
:102240008243D379BB422FD845464E4613004049BE
:102250001B1B5B415943090D3A4B63533A4B023503
:102260006519043B5B1B1B05354D5B0D2B437380D0
:102270000426B446E0444444131F1B1B4C46A17182
:1022800002991B05A16049465B0D2B43A380314B8E
:10229000E77101431360BDE75800C01880002018A3
:1022A000C679BE422CD902000623D356002BF3DA9E
:1022B000101D8246BD200002804604267642B446A8
:1022C000E14450464E46361A3005400D8246564689
:1022D0001B48957106439680039A944665441D4AAF
:1022E000AD00641922604246A371029BA280E7718F
:1022F000A3608FE701F006FA002553465D5753E7C8
:10230000101D824690884005001584464046D444FE
:10231000664604302018301AE0260005400D3602CB
:1023200030438046C9E701F0EDF956E7240100D0BB
:10233000D7AC00201893002000ED00E0CD01001084
:1023400000E0FFFF00A1FFFF4893002000BDFFFF5A
:10235000AAAA000001488047F0B5DE4657464E461F
:102360004546E0B50C0083B0EFF3108A72B65A4AC6
:102370001368002BFCD0BFF35F8F1022914681447D
:102380004A46564B96009B689D59554B98469D4230
:1023900005D0A54216D0534FEB1B2F2B14D94F4B12
:1023A0009B689D51BFF35F8FBFF35F8F00224A4B45
:1023B0001A608AF3108803B0F0BCBB46B246A94647
:1023C000A046F0BD1D00EAE7012383409B465A4624
:1023D000454B1B681A4000925A46444B1A60BFF3A3
:1023E0005F8FFDF740FF0190002803D0814501D0A9
:1023F00001F088F901232A009A4393689C4208D18E
:102400005FE04B005B189B00FB189968A14211D05C
:102410001A00062151560029F3DA009B002B05D043
:102420005A46334B1A60304B1A60B8E75A462F4B66
:102430001A60B4E706215956002921DB4A005018DA
:1024400080003C188046A0689860E079D87106202A
:1024500020569871002824DBA488F81A64052415F6
:1024600044440019E0240005400D240220439880D4
:102470005218204B9200BF181A781970BA71CCE725
:102480000199002910D1FF3191711B49918019499F
:102490000A789A71194ADB1B5B415A43120D0A7084
:1024A000BBE7BD200002E2E7154A1649D21A083AF6
:1024B0005002400D01439980134952080A43DA80C3
:1024C000ABE70621515613000029B7DA019A002A1A
:1024D000EAD14546DBE7C046240100D000ED00E02C
:1024E000CD0100101893002000E100E080E100E041
:1024F00080E200E0D7AC002000BDFFFFAAAA0000E8
:102500005293002000F0FFFF00F8FFFFF8B501250F
:1025100004000543FDF7A7FEEFF3108C72B6214AC5
:102520001368002BFCD0BFF35F8F1F4E2100B768EC
:102530001E4A1F4B891A49414B431B0D59B2830058
:10254000F858A8421CD00623D3568B421CD0122325
:10255000D3568B4222D01E23D3568B4220D02A231F
:10256000D35603208B4210D0124B1A781970A271E7
:10257000BFF35F8F00220B4B1A608CF31088F8BDFD
:10258000B2680D48D050EFE7002043001B189B00B5
:10259000D218FF239371094B9380E5E70120F4E7FC
:1025A0000220F2E7240100D000ED00E018930020A3
:1025B000AAAA0000D7AC0020CD01001000BDFFFF8B
:1025C000054B064A1360064A136053609360D3605C
:1025D00013615361936170478080808000E400E064
:1025E00004E400E0D02300B51B061B680100074887
:1025F00083B0C018064B002200930523FFF7D8FCD8
:10260000002801DB1F23181A03B000BDD0AC002046
:10261000E0D10010024B9C46614489000160704784
:102620004000003483680B4810B58446614462441E
:10263000090112019A18591854684B6801209C42EC
:1026400001D802D00020C0B210BD12680B689A42B7
:10265000F9D8F7E7FFFFFF0F0A4B1968EFF3108077
:1026600072B60A68002AFCD0BFF35F8F1B68BFF305
:102670005F8F00221A6080F3108840BF0020002185
:102680007047C04694AC0020F8B557464E464546C4
:10269000DE46E0B599460CAB1C780DAB1B78060006
:1026A00090469A460768002C11D1BC7B002C42D082
:1026B00065003B682D19033D59194B78BB73002BFE
:1026C00000D1FB7300238B704B700B7004E065002E
:1026D0003B682D19033D5919B2682A4B944642466E
:1026E000E3181B0163441A604A465A600A9A9A60CA
:1026F0000B9ADA6000238B704B700B707B7B9B46D0
:10270000002B2BD022005946B8687B6898473A685E
:10271000002816D05B4658465B005B445519033BC6
:10272000A870D118D35C002B00D06B705B460C7086
:102730007B73A34513D0F0BCBB46B246A946A04666
:10274000F8BD5B465B005B44033BD3189C7051199A
:10275000525D002A00D05A705B460B707C73424673
:102760004B46307D00F026FC051E06D05346002B5C
:1027700003D12100306800F03FFE0E9B002BDAD021
:102780001D70D8E7FFFFFF0FF0B5DE464E465746F7
:1027900045460023E0B58DB00A936B4B8200D358B9
:1027A0000B90994600239B464B46079300F0A2FBF3
:1027B000079C06000F006268EFF3108572B613687D
:1027C000002BFCD022000794BFF35F8F2468637B4B
:1027D0009946002B67D092685C4B90464B441B0196
:1027E000984443461A685B6810001900801BB94181
:1027F00000295FDD0B9800F0DDFB002300269846E2
:1028000000279A46079C6368BFF35F8F5A461A6099
:1028100085F310885346002B08D10028C6D10DB08F
:10282000F0BCBB46B246A946A046F0BD0A9B414655
:1028300018024B461843D047089009916268EFF39D
:10284000108572B61368002BFCD00794BFF35F8F1E
:102850000899099A002A48DB114303D0079B1B699A
:10286000002B5DD1079B1B68D97B002907D04A004C
:10287000521819688C4649466244033A51704A46D8
:10288000DA734B46079A013BD168CA5C0132CA54DD
:102890005B46079A13615368BFF35F8F5A461A600D
:1028A00085F3108882E700230026984600279A4681
:1028B0000020A7E7002901D100289BD1002120009A
:1028C00000F01CFD43461E685F689B68079A9A46A5
:1028D0004346DB689846D3684B44013B1B780A9318
:1028E0001B020343136100208CE72369002BB9D03E
:1028F00033003C005B1A94411A002300A74219D808
:102900009F421BD0594604910121039149460291EF
:1029100041460191514607980091FFF7B5FEB7E790
:1029200000F0E8FA089A099B06000F0092197B4113
:102930009942E5D901225242D317E3E79642E1D901
:1029400001225242D317DDE774AC0020FFFFFF0FD6
:10295000F8B557464E464546DE46E0B5404D814601
:102960008A466A68EFF3108872B61368002BFCD0B1
:10297000BFF35F8F2E68B47B002C39D067003368BB
:102980003F19033FDB195A78B273002A00D1F27362
:10299000A968344A8C464946A21812016244116063
:1029A00051465160304991600021D1609970597051
:1029B0001970737B9B46002B35D022001900B0683C
:1029C000736898473268002820D05B4658465B0001
:1029D0005B44D719033BB870D118D35C002B00D0EF
:1029E0007B705B460C7073735C451DD0002626E03F
:1029F0006B68BFF35F8F1C6088F310880120404232
:102A0000F0BCBB46B246A946A046F8BD5B465B009B
:102A10005B44033BD3189C70D119D25D002A00D0CF
:102A20005A705B460B7074734A465346287D00F01B
:102A3000C1FA061EDAD02100286800F0DDFCEB6840
:102A40001B19013B19786B68BFF35F8F00221A6076
:102A500088F310880020002ED2D108022043CFE74F
:102A600060930020FFFFFF0F5926001010B5124C95
:102A70006368002B04D00A211048FFF7CBFD10BD7E
:102A800023000F4A1021206800F056FB032000F0BD
:102A900025FA032000F0FEFA03200A4900F044FA68
:102AA000FFF7EAFA084B9C46032360442375074B63
:102AB00080006060DC60DEE76093002094AC002062
:102AC00025260010892700104000003474AC002037
:102AD0000048704760930020F0B557464E46454683
:102AE000DE46E0B585B0019310AB1B78060003937A
:102AF00000239A46984600927268EFF3108972B6E6
:102B00001368002BFCD0BFF35F8F3568AC7B002CC3
:102B100049D067002B683F19033FDB195A78AA7325
:102B2000002A00D1EA73B1684F4A8C460098019997
:102B3000A21812016244106051600E9991600F99C1
:102B4000D16042469A705A701A706B7B9B46002B7C
:102B500045D022001900A8686B6898472A680028A9
:102B600030D05B4658465B005B44D719033BB870D6
:102B7000D118D35C002B00D07B705B460C706B735C
:102B80005C452DD0F3681B19013B18787368BFF3BF
:102B90005F8F42461A6089F310885346002B2CD170
:102BA0000002204307E07368BFF35F8F1C6089F366
:102BB00010880120404205B0F0BCBB46B246A94691
:102BC000A046F0BD5B465B005B44033BD3189C70A2
:102BD000D119D25D002A00D05A705B460B706C731D
:102BE000307D009A019B00F0E5F982460028C9D0AB
:102BF0002100306800F000FCC4E7039B002B30D0BC
:102C00000E9B00200F999847030004000D000B4312
:102C100027D000290DDA0098019902000B00121B41
:102C2000AB41994213D818D000920193039B9A4666
:102C300062E700F05FF902000B00A4185D41009408
:102C40000195A94203D8F1D100998A42EED9012316
:102C50005B42DC1700930194E8E700999142E3D9C5
:102C6000F5E70020A7E7C046FFFFFF0FF0B504001F
:102C70000D0006267642F717C64636196F4100B595
:102C80008F4213D810D000F035F932003B00121AF1
:102C90008B41002B14DC002B37D02900200000F0E2
:102CA00033F980BCB846F0BD8642ECD90026002737
:102CB00000F020F932003B00121A8B41002BEADDB4
:102CC00030003900FFF744FE0028E6DB0023984679
:102CD000BC460F4A0F4F7B6A9C4504D8B96A8E42A6
:102CE000DBD99C45D9D11168EFF3108072B60B681F
:102CF000002BFCD0BFF35F8F1368BFF35F8F41469B
:102D0000196080F3108820BFE5E7002AC5D0D7E717
:102D100094AC00200040054070B5060000F0EAF8D1
:102D2000FA2204000D00002330000021920003F07D
:102D30005BF9001969418D4205D802D0FFF796FF73
:102D400070BD8442FAD901204042C117F6E7C0465F
:102D5000F8B5CE46474680B506000C00FFF7F8FDF3
:102D600000280CDC2D4B0020596A8C4203D89B6A4A
:102D70000130B34245D3C0BCB946B046F8BD20BF10
:102D8000274D6A68EFF3108772B61368002BFCD0EA
:102D9000BFF35F8F2B68C1B29C465B7B8B4235D003
:102DA000FF2303405A0091466246126899449046B8
:102DB0004A464244033A9278002A1DD0EA68000A43
:102DC00090464344013B1B78C0B2834221D06B68DC
:102DD000BFF35F8F00221A6087F310880F4A00202C
:102DE000536A9C42C7D8926A0130B242C3D2E01AF9
:102DF000421E9041C0B2BEE72B699842E7D12A61DA
:102E0000E5E7601A431E9841C0B2B4E7FF230340D0
:102E1000D4E7604600F0F0FAD9E7C046004005402C
:102E200060930020F0B5D6464F464646C0B5EFF356
:102E300005833F22134018001038EFF3108C72B650
:102E4000204D2A68002AFCD0BFF35F8F01221100B9
:102E500081401D4C884661631C4917000E788A46E4
:102E60003100C1400F400A4209D1BFF35F8F2F608C
:102E70008CF31088E0BCBA46B146A846F0BD1449B0
:102E80008200646A51588C420FD3124BD258434689
:102E90009E4353461E70BFF35F8F00232B608CF35D
:102EA0001088002AE6D09047E4E70B4A9B00904642
:102EB00043441A681A60BFF35F8F00232B608CF3C2
:102EC0001088D7E7280100D000400540DBAC002087
:102ED000A0AC002018A60020D03F054010B501008E
:102EE000024A0348FFF742F810BDC046FCD100106B
:102EF000D5AC0020034B596A0A00986A596A8A4285
:102F0000FAD1704700400540064A536A9942FCD8FE
:102F100007D1044B02E05A6A914202D19A6A824276
:102F2000F9D370470040054070B504000D00EFF381
:102F3000108672B61A4A1368002BFCD0BFF35F8F5D
:102F4000002D1BD02000FFF7E3F8164981420AD07C
:102F50002000FFF7E5F801212000FFF7A9F8012381
:102F6000A340114A1360114BA400E550BFF35F8FDB
:102F700000220B4B1A6086F3108870BD0B4BA20029
:102F8000D5500122A2400A4920000B7893430B70D0
:102F90000449FFF7E1F900212000FFF789F8E5E790
:102FA000280100D0252E00103860054018A600200A
:102FB000DBAC0020F0B54F46D6464646C0B507000C
:102FC0002F4C616A0D00A66A616AA942FAD18B4250
:102FD00008D805D00120E0BCBA46B146A846F0BDED
:102FE000B242F7D9EFF3108A72B626480168002979
:102FF000FCD0BFF35F8F0125BD402349204C88469C
:10300000097889462943C9B28C4641466046087012
:10301000391D1E48890065630A51B9000B50216AA9
:103020000020294219D0616A0800A66A616A8142BB
:10303000FAD18B4219D801D1B24216D8CC451DD055
:103040000F4B1F201D625D6301230740BB40104AE8
:103050001E38136043464A461A70BFF35F8F002242
:10306000084B1A608AF31088B5E70020BFF35F8F22
:103070000022044B1A608AF31088ACE70120ECE7C9
:1030800000400540280100D0DBAC0020A0AC0020AF
:1030900080E200E0EFF3108C72B60A490B68002B57
:1030A000FCD0BFF35F8F01238340074A07481362B8
:1030B00002789A430270BFF35F8F00230B608CF39A
:1030C00010887047280100D000400540DBAC00208C
:1030D00070B5050014001600002915D00C00002A58
:1030E00012D080686B689847296800280ED073005A
:1030F0009B196200033B1219CB18033A9C70881885
:103100008A5C002A15D10670200070BD63001B196F
:103110007200033B9219CB18033A9E7088188A5CA0
:10312000002A02D104703400EEE75A7004703400B3
:10313000EAE75A700670E7E730B583600023CCB247
:1031400043730133047342608373C4730D000068DA
:10315000012C06D9421C0133DBB2137003329C42AE
:10316000F9D1FF2129404B0059180023401803389A
:10317000437030BDF8B5CE46474606000C0080B51A
:10318000002907D04D0003686D18033D5A19577880
:10319000002F04D12000C0BCB946B046F8BD79006C
:1031A000C919033988464344597889460021597022
:1031B000517073683A00210080689847336800288E
:1031C00014D042469A18947059195B5D002B00D0B8
:1031D00053700F70270049463000FFF7CBFF3900CE
:1031E00002003000FFF774FF0400D3E74246414677
:1031F0005D19AF709A185B5C002B00D06B70147077
:10320000E9E7C046F0B557464546DE464E46E0B5CE
:103210000D006B0001685B19DF1E0400C85D83B000
:103220000192CA1900284CD043001B18033BCB184D
:103230005E78B446002E16D1019E002E3ED0E67B6D
:10324000002E04D073009B19CB18033B5D70E5730F
:1032500000282FD10023537003B0F0BCBB46B24608
:10326000A946A046F0BD72006244033A89184A7824
:10327000904600224A7091465A70010032002000A8
:10328000FFF726FF43468246002B07D05B002168EC
:103290004344033BCB185A78002A16D14246514684
:1032A0002000FFF715FF2168019BCA19002BC6D12A
:1032B0000028CFD043001B18033BCB180021997086
:1032C000C8E7019B002BBAD1C4E75000801803382F
:1032D000091848788346484648705870414620008F
:1032E000FFF7F6FE594680462000FFF743FF4146B0
:1032F00002002000FFF7ECFE8046CFE7F0B557460E
:103300004546DE464E46E0B583B00191457B04005C
:103310006B0000685B19DF1EC15DC21900294ED029
:103320004B005B18033BC3185E78B446002E18D1DF
:10333000019E002E40D0E67B002E04D073009B1926
:10334000C318033B5D70E573002931D100232800C9
:103350005370617303B0F0BCBB46B246A946A046A9
:10336000F0BD72006244033A801842789046002211
:10337000427091465A7020003200FFF7A9FE434682
:103380008246002B07D05B0021684344033BCB18E7
:103390005A78002A17D1424651462000FFF798FE7E
:1033A000019B01002068C219002BC4D10029CDD097
:1033B0004B005B18033BC31800209870C6E7019BC5
:1033C000002BB8D1C2E7500080180338091848789C
:1033D000834648464870587041462000FFF778FE03
:1033E000594680462000FFF7C5FE414602002000F6
:1033F000FFF76EFE8046CEE770B5040000292CD0A2
:10340000437B8B422ED005684800401803382818AB
:103410008278002A21D053009B18033BEA5CEE1807
:103420008A4202D11BE0002A08D053009B18033BBC
:10343000EB185A788A42F6D142785A70002301225A
:10344000837043702000FFF7DDFE617B02002000E7
:10345000FFF73EFE6073012000E0002070BD43785E
:103460003370EBE701221900FFF7CCFE60730120F7
:10347000F4E7C04610B50400FEF7FEFD0100200091
:10348000FFF7C8F8FF232371BFF35F8F10BDC0465D
:1034900010B50400FEF7F0FD01002000FFF7BAF8B8
:1034A000FF23A380BFF35F8F10BDC04610B504009B
:1034B0000120FEF7EDFD044B9C4660448000206037
:1034C000BFF35F8F10BDC04640000034F8B5040064
:1034D00006200D0000F004FB002844D02A4B2B49A5
:1034E000E21853425A418023DB039C469205284B45
:1034F00062441A60274B1A6010008B689843FBD116
:10350000214B8021E3185A425341234A5B00490072
:103510009952062000F0E4FA2900C00001F0EAFE0A
:10352000C30921D140270121260080256162A362C1
:1035300000232C36AD0135432B60062000F0D0FA75
:103540003900800001F0D6FE6023E26A53406E220B
:103550001A4080235B0133431A60104B236310230E
:103560002B600D3BA364F8BD0D4A934203D90023A1
:103570000C4F0D49D8E77F221040013040089F01D1
:1035800019003F180300CFE70080FCBF00C00040D7
:1035900000E0004000F00040B4AC00200103000057
:1035A000FEFF0000C0FF3F00FFFF00002C4B2D4A34
:1035B00070B51A602C4A2D4B2D491A6014008B6887
:1035C0009C43FBD12B4D2C4EB54208D2013E761BBD
:1035D000B60808CD984723000134B342F9D100F072
:1035E00021F9264A214B1A60214A9368DB43DB010B
:1035F000DD09002BF9D14022214B224C224E9A6743
:103600005A671A67DA66B44208D223682000002B92
:1036100020D00834FFF73CFFB442F6D31B4E1C4CBD
:10362000C022A168300002F077FDA660FEF716FD0B
:10363000FEF7C6FFFFF71AFA164C174EB44208D22F
:10364000013E361BB60808CC98472B0001359E4238
:10365000F9D170BD0834FFF70DFFB442D5D3DDE7D3
:1036600000E00040BFCDFBFEFE7F3C0000F00040CC
:1036700000C00040209E0020309E0020FFFFFF0180
:1036800000F00140189E0020209E00200000002035
:1036900000ED00E0309E00203C9E0020094A03001F
:1036A0001068002805D00849C3188B4207D813605A
:1036B000704706480449C31810608B42F7D90120AF
:1036C0004042F5E7D0A7002000000420DCAC002039
:1036D00000BEFDE70FB400B5084883B002F088FED5
:1036E000049B002B07D005A91800019101F088FD6B
:1036F000034802F07DFE00BEFDE7C04620D2001068
:1037000098CE001010B50148FFF7E4FF30D200104A
:10371000F0B54546DE4657464E46E0B583B00192C9
:103720000C9A050088469A4200D974E01A0E934616
:103730001E023000002359460C9A01F01DFE374B43
:103740006C009C466419A4006444636807008342CB
:1037500000D260602B1FDBB29946012B35D9C02304
:1037600080229B01234312011A602D4BAD00595951
:103770009A46002905D0586901F0BCFD0130013896
:10378000FDD1019A236852015340E0221A40802360
:103790005B0123431A604A46012A2FD980238022E5
:1037A0009B01234312011A60300000233A0059465E
:1037B000676001F0E1FD53465851012003B0F0BCB1
:1037C000BB46B246A946A046F0BD4346012BC6D132
:1037D000C02303229B0123431A60023AA3681A42C2
:1037E000FCD0019A236852015A40E0231A408023FA
:1037F0005B0123431A600A4AAD00924642462168A3
:10380000514003220A401A60012243469A40A368AD
:103810001A42FCD0C2E70020D0E7C046008000403A
:103820002CA7002030B50C2083B000F0B7F9FEF7CC
:103830000DFC00280ED0944B944A1A605A609A608E
:10384000DA601A615A619A61DA611A62904A5A62C0
:1038500003B030BD8F4CA06700F0F4F901228E4B0D
:103860001A60636C012BFCD103228C4B1A60894ACD
:10387000936B012BFCD101330121894A89480093C4
:10388000043300F033F90523874A00930121874868
:1038900000F02CF9864B5A68FF2A02D88022520089
:1038A0005A608022784C7D4B21691201804D1A604C
:1038B000002905D0606901F01DFD01300138FDD1FE
:1038C000E0217B4B02201A681140802252012A43DA
:1038D00011601968484003210140116004219A6871
:1038E0001142FCD08022802192012A4309011160FB
:1038F000802252005A606F4B23616F4B5968FF2939
:1039000000D85A600321644A6B4B116002399A68EF
:103910001142FCD0E0201A681040802252011A4364
:10392000106018684840032101400220116062497C
:103930008A681042FCD08022920113438022120137
:103940001A6080225D4B52004A6063615C4B59688B
:10395000FF2900D85A6080225A4BE1691201584D64
:103960001A60002905D0606901F0C4FC01300138FB
:10397000FDD1E02252490B681A4080235B012B43A2
:103980001A60802380229B012B4312011A6080223F
:103990003E4B52004A60E3614B4B5968FF2900D807
:1039A0005A608022494B216A1201474D1A60002952
:1039B00005D0606901F09EFC01300138FDD1E022A4
:1039C00041490B681A4080235B012B431A60802316
:1039D00080229B012B4312011A60802380225B000E
:1039E0004B602A4BD2022362394B5968914200D274
:1039F0005A608022374B616A1201354D1A600029E6
:103A000005D0606901F076FC01300138FDD1E0227B
:103A10002F490B681A4080235B012B431A608023D7
:103A200080229B012B4312011A608023DB024B6032
:103A3000174B6362284B5A68FF2A02D88022520033
:103A40005A608022254BA1691201234D1A6000297A
:103A500005D0606901F04EFC01300138FDD1E02253
:103A60001D490B681A4080235B012B431A60802399
:103A700080229B012B4312011A6080235B004B6064
:103A80000E4BA361E4E6C0462CA70020006CDC02CC
:103A90001BB70000008000403CB0004030B0004048
:103AA000002F685900800240008C864700C0024009
:103AB00030800040001BB7003C8000404059730735
:103AC0005480004054B000406080004060B000402E
:103AD0006C8000406CB000404880004048B000401E
:103AE000014B8000C05870472CA70020F0B5C64697
:103AF000040000B50C2090461F000E0001F0FAFBF8
:103B00004101091A8D01691AC90009188901404645
:103B100001F0F0FB069B3F041A0323681743002BB8
:103B200022DB1A4B1A4DE21853425A4180235B01A3
:103B30009C461203174B62441A60174B1A6011001F
:103B4000AB689943FBD1C022231D92011A43212364
:103B50002660A06013602368002BFCDA0823E7606E
:103B6000136080BCB846F0BD3F2322681340B342C7
:103B7000D7D1A3681B051B0D8342D2D1EE22E36887
:103B8000D2021340BB42CCD1EBE7C0460040FDBFA0
:103B900000C0004000E0004000F000408023024AE6
:103BA0009B000343D36270470080054010B51400AA
:103BB00080221B4BD2051A6000281AD00123194A13
:103BC0001843194BDA61194A42401A6259629862E5
:103BD0008022134BD2051A601549164A1160E02263
:103BE000D2041A60002C07D18022134B12061A60EF
:103BF00010BD0D4BD861EBE763011B1B9A008023BE
:103C0000121912015B049A4200D30C4A0C4B1A6041
:103C1000054B5A608022084BD2051A60E8E7C0467F
:103C200000B00540D3C007B0008005402D3FF84FDD
:103C3000FCFF01000820014000A00540FFFFFF003D
:103C4000DCAB0020AA23064A1B011360BC235B01E6
:103C5000D3600449044B19605368002BFCDA7047A9
:103C60000040024000B0FA00006002407047C046C9
:103C7000F8B557464E464546DE46E0B599460A9B9E
:103C800007009A460D9B8846934615000B9E9B079E
:103C900010D10C9B9E420DD29D1B14000E005D4462
:103CA00022004B46013431002020B847A542F7D10D
:103CB000B0460B9E002E27D0444675195346AA1BCA
:103CC000013E985D21004B46B847002EF6D12300F7
:103CD0002C0098460D9B9B070FD55B46E51A0C9B65
:103CE000AB420AD94646984622004B463100202076
:103CF0000135B8470134A845F6D82000F0BCBB46D2
:103D0000B246A946A046F8BD2C00E3E7F0B54F4601
:103D10004646D646C0B584B098460EAB1B78129F77
:103D2000994694460D9C109B119EBA0725D4002EEF
:103D30004BD19C4200D3BFE001223A4092461F2C57
:103D400000D9B8E00C9A551E302201E0202C03D097
:103D500001342A55A342F9D85246002A0DD0A64272
:103D60000BD9202C44D00C9A551E302201E0202C77
:103D70003ED001342A55B442F9D1FA064DD57A0520
:103D80003FD4002C39D10F9B102B00D179E00F9B31
:103D9000022B00D18AE030230C9A012413704B4689
:103DA000002B3FD02D230C9A135501340C9B6246F7
:103DB00000930397434602960194FFF759FF04B01E
:103DC000E0BCBA46B146A846F0BD012215003D4010
:103DD000AA463A422FD04A46002A02D10C323A4231
:103DE00000D0013E9C42BAD21F2CABD9202E27D93D
:103DF0002024FA06DAD57A0503D4A3422DD0A642B0
:103E00002BD00F9B102B32D0022B20D0202CCDD0CA
:103E100030220C9B1B191A700134202CC6D04B4643
:103E2000002BBFD17B070DD43B07BFD520230C9AB5
:103E300013550134BAE79C429FD21F2C00D881E76A
:103E400020249AE72B230C9A13550134AEE7202C3B
:103E5000ACD00C9B1B1901343AE0631E012C92D0AC
:103E60000F9A102A2AD0022A2FD01C00D0E7BB06B6
:103E70000ED4202C9AD00C9B1A190134782313707D
:103E8000C4E7BB060DD478230C9A01241370BFE756
:103E9000202C00D18AE758220C9B1B191A70013480
:103EA000B4E758230C9A01241370B1E70C9A6033DD
:103EB00001241370ACE7202400265EE7023CBA061A
:103EC000E9D40C9A12191C00D8E70C9A9246534474
:103ED00062221A709AE7C04610B5002800D110BDC2
:103EE00002F036FAFBE7C0460B0010B5002802D0FE
:103EF00049681B68984710BDF0B5DE4657464E46E8
:103F00004546E0B59BB09B46249B89469846259B39
:103F10000B900C924046424619009A4601F0BBFCB9
:103F2000002800D0D8E0012240465146774B52424B
:103F300001F0ACFC002800D0CEE001224046514602
:103F4000734B524201F08CFC002800D0C4E00022E8
:103F500000234046514601F083FC002800D0B9E11F
:103F6000424653460A9209938023289ADB001A405E
:103F70000E92289A1A4201D1062326930A9A099B87
:103F80001600134300D0C7E0289B002500261B0520
:103F900000D49BE100230D93269A0D9B9A4200DCEE
:103FA0009FE1D01A431E26938023289ADB001A43F0
:103FB0000023002728920D93279B0024BB4200D9A1
:103FC000DC1B0223289A1A400E92289A134203D02F
:103FD0007B427B415B421C400D9B002B07D00A9823
:103FE00009992A00330001F0DAFB0A9009910022B6
:103FF00000234046514601F033FC002805D08020C4
:1040000000068446099961440991289A414B0B9D09
:1040100013400493269B0A9A0293099B03940092EF
:10402000019349465B4628000C9A00F08BF9040086
:10403000002F62D0289B220098061F23C0179843A8
:10404000631C984649465B466530A8470D9B002592
:10405000DA179C18DB0F9A465440013F01E0202DEF
:1040600013D00AAA94461F23200063440A21013575
:104070005E1901F03FF93031317020000A2101F062
:1040800039F926000400092EE9D8052306930023F8
:1040900004930A330393534605970B9F029312AB85
:1040A000009342465B46494638000195FFF72EFED5
:1040B0000E9B0400002B20D00C9BC51A279BAB4203
:1040C0001BD91E0022005B46494620200135B84717
:1040D0000134AE42F6D810E0289B42460493279B59
:1040E00049460393269B0B980293534600920193F3
:1040F0005B460C9A00F026F9040020001BB0F0BCCF
:10410000BB46B246A946A046F0BDC046FFFFEF7FC2
:10411000FFFFEFFFFFF7FFFF734B099F9C467800FF
:10412000400D604401F0CAFB704A714B01F055FB31
:10413000704A714B01F02AFB3B03704A1B0B1A4378
:1041400004000D00300011006D4B002201F015FB42
:104150006C4A6D4B01F041FB02000B00200029006E
:1041600001F014FB01F0C2FB0D9001F0A7FB674AC0
:10417000674B04000D0001F030FB0022654B01F09D
:1041800005FB01F0B3FB644A0600644B20002900E4
:1041900001F023FB040030000D000F9601F08EFBB0
:1041A0005F4A604B01F019FB02000B002000290060
:1041B00001F0E3FA02000B0006000F0001F00DFB16
:1041C000320004000D003B003000390001F0DEFA3F
:1041D000002210901191544B2000290001F0DFFAC9
:1041E0000022524B01F0D2FA02000B0020002900FD
:1041F00001F0D5FA00224E4B01F0C8FA02000B0084
:104200002000290001F0CBFA0D00802104003200CB
:104210003B000020C90501F0B0FA02000B002000AD
:10422000290001F0B3FA02000B001098119901F077
:10423000B6FA0022314B01F0A9FA3E4B0F9C9C4686
:1042400064440022230501F0C8FA05000E000200B4
:104250000B000A98099901F003FB00280AD00D9B76
:104260002800013B31000D930022304B01F097FAFA
:1042700005000E00C6270D992B0063318F42BF4108
:1042800028997F420437090500D495E6334300D1CD
:1042900082E6099C284A2100284B0A9801F0EEFA90
:1042A000002808D000222100254B0A9801F0D8FAF6
:1042B000002800D070E6269B002B00D17CE60E9BE8
:1042C0005A1E9341269AD31A269375E60023042793
:1042D0000D9371E643460A9380231B0653440993CA
:1042E00042E6002326935FE601FCFFFFFB799F5027
:1042F0001344D33FB3C8608B288AC63F0000F03F09
:104300000000F83F61436F63A787D23F71A379092B
:104310004F930A400000E03F1655B5BBB16B024019
:10432000EF39FAFE422EE63F00002C400000244008
:1043300000001840FF0300002D431CEBE2361A3F3B
:1043400080842E41F0B54E46DE4657464546E0B5E0
:1043500097B09946209E219F229B834698460791BD
:104360000C923B0032003000390001F094FA002832
:1043700000D0A9E1012230003900CA4B524201F0BD
:104380006FFA002800D0E1E0012230003900C64B6E
:10439000524201F07BFA002800D0B7E00022300042
:1043A0003900C24B01F072FA002800D099E00022D7
:1043B00030003900BE4B01F053FA002800D090E0E5
:1043C000002200233000390001F04AFA002800D012
:1043D000B1E000230D93249B5B0501D4062398468E
:1043E00008AB9C461722002430234146624404E077
:1043F000013413550139202C01D00929F8D88846F9
:104400003000390001F072FA4346DA00A94B05008A
:104410009B181A685B680892099301F04FFA020032
:104420000B003000390001F0A8F9089A099B01F04F
:10443000D4F90A900B9101F07DFA824601F03AFA24
:1044400002000B000A980B9901F097F900229A4B91
:104450000A900B9101F01AFA002800D1C0E0012364
:104460009C46E244504601F025FA02000B000898F1
:10447000099901F0FBF9002802D000239A46013582
:104480004346002B6AD008AB17269C460895664425
:10449000554614E001235B4243440A2128009A4612
:1044A00000F028FF013430313719397028000A2113
:1044B00000F020FF092D00D8D0E0D0460500202CC8
:1044C000E8D10EAB98460323249A1340012B00D168
:1044D00096E02023249A01930392239A4346029262
:1044E0001EE0249B58460493239B00960197039358
:1044F00043460C9A029307994B46FFF7FDFC17B011
:10450000F0BCBB46B246A946A046F0BD249B5B0763
:104510000ED40322694B24990192039123990291AD
:10452000009358464B460C9A0799FFF7A1FBE6E724
:104530000422634BEFE73B0032000020002101F032
:104540001CF9012306000F000D9344E7249B0393FD
:10455000239B0293042301935A4BE1E7280001F0C7
:10456000ADF902000B003000390001F006F9524BA2
:10457000002206000F0001F073F90EAB98460028E8
:104580000AD10022300039004B4B01F07FF900289E
:1045900002D1EB0700D50135202C94D008AA94460F
:1045A0001723280063440A2101341E1900F07AFE03
:1045B0003031280031700A2100F074FE051EEBD165
:1045C0000323249A1340012B1BD0202C00D180E719
:1045D0000D9B002B35D02D224146631C0A5579E7EF
:1045E00000220A980B99344B01F03AF9002800D0C8
:1045F00046E75346002B51D101239C46E2443FE756
:104600002024239B002BE0D00D9B002B03D1249A68
:104610000C33134202D0239B013B2393239BA342E1
:10462000D3D908AB9C46172230236244202C00D1FA
:104630004FE72399013413558C42C6D0202CF8D172
:1046400047E7249B5B0724D4249A2300120700D455
:1046500040E72022414601330A553BE75746089D73
:10466000202C00D12DE7220030214046002F09D018
:104670000132B154202A00D123E7D3431B191B1860
:10468000002BF5D10EAB98462E234146541C8B547B
:1046900082E72B224146631C0A551BE7DB0700D447
:1046A000EEE6A9E7FFFFEFFFFFFFEF7F65CDCD410E
:1046B00065CDCDC138D400100000E03F3CD20010E1
:1046C00040D200104CD20010249B0393239B0293F2
:1046D00003230193004B23E748D20010F0B5DE46D8
:1046E0004E4657464546E0B59FB01C00289B914674
:1046F0000993C94AC94B8B4608901A60002900D11A
:1047000018E2002320789A46002800D11AE22600F9
:104710001D005C460AE02A006F1C4B46089D2100E4
:10472000A8473D0001363078002870D02528F2D106
:1047300010239B46083B9A46043B9846023B0021C7
:104740009C46721C107816000300203BDBB2102B35
:1047500003D8B34F9B00FB589F460300303B092B07
:1047600032D900230A932A2868D0002398462E289D
:104770003ED00300683BDBB2122B1CD8A94A9B0039
:10478000D3589F46012301321943DBE763460132C8
:104790001943D7E7434601321943D3E75B46013259
:1047A0001943CFE7534601321943CBE780235B001F
:1047B0007078194301360300253BDBB2532BAAD88E
:1047C000994A9B00D3589F4600270300B800C019A0
:1047D00001364000C018337830381A00303A0700EC
:1047E000092AF3D90A901800002398462E28C0D130
:1047F00080237078DB0019430300303B721C092BC7
:1048000000D8A1E12A2800D1B2E11600B1E7A34601
:10481000AA462C00D14503D801235B424B449A465B
:104820004B46524659460020089DA84720001FB01D
:10483000F0BCBB46B246A946A046F0BD099B40CBA2
:104840000A96002E03DB50780993561C8DE7283812
:10485000014370420A9009935078561C85E77828E6
:1048600000D1DFE1582800D14CE26F2800D14FE39E
:10487000622801D100F030FC10230A009A430B9209
:10488000692801D000F0A9FC0A230C934B0500D540
:10489000D0E10B9A802311009B0019408B461A42ED
:1048A00000D0A1E2802311005B0019408A461A4221
:1048B00000D0B6E313005B0600D5EDE213000999C2
:1048C0001B0601D400F076FC08C91BB2D8171A18D1
:1048D000424092B209919346DA0F1292002B09D10D
:1048E000802310220B99DB000B4091430B91002B8E
:1048F00000D0E4E20B9A6123920600D541230EA971
:104900001F228C46DBB262440A3B5F461395A346E6
:1049100055460C9CB2460D9316000AE03033DBB2CC
:1049200001357355A74200D2EDE2202D00D1EAE215
:1049300007002100380000F0DDFCCBB20929EDD9D9
:104940000D9A94466344DBB2EAE780239B007078BB
:10495000194301362FE77078682800D1CDE1802314
:104960000136194327E770786C2800D1BFE1802316
:104970005B00194301361EE7462800D19BE1072260
:10498000099B0491073393430A9A19000392424604
:1049900002920CC908980092019309912A004B4693
:1049A0002100FFF7CFFC01360500BCE62A006F1C92
:1049B0004B46089D21002520A84701363D00B2E660
:1049C0008B0700D4ADE1099B2A009A466B1C9846E0
:1049D000534601CB21009A46089F4B46C0B2B847C8
:1049E0000A9B9C466544012B00D886E2089B4746FB
:1049F000B04626004C4699463A0023000137310064
:104A00002020C847AF42F7D1A1465346340046465E
:104A10000993013687E6C046DD460010D8AB00207A
:104A200054D2001098D20010E4D20010099B04CB9D
:104A30009B4643460992002B00D1C6E013789C4662
:104A4000002B00D1BDE34346013B099A0133D01846
:104A50000A9F130001E0834203D05A780133002AF1
:104A6000F9D1099A0A979B1A0B9380230A00DB005D
:104A70001A400C92194204D00B9B434501D943467E
:104A80000B9302231A000A400D920B4200D187E1DA
:104A90006046002800D168E10C9B002B00D10DE19D
:104AA000A844C246099B57465B1B9846089BB246E2
:104AB0002A0026004C46994609E023003100551C87
:104AC000C8474346585D002800D126E12A00974296
:104AD000F3D1A1463D00340056460D9B002B00D07B
:104AE00043E15B46013609931DE6099B1A0008CA9B
:104AF0009246002B48D0212211438B460EA88446B3
:104B00001F216144099500220F27A4460D0002E0F1
:104B1000202A0CD00B003C001C4020003730092C10
:104B200000D807380132A85419090F2BF0D8644671
:104B3000099D32E0DC4B2078089300239A46002838
:104B400000D0E4E5002465E6434606000A9F98008D
:104B5000C018013240008019167803003000303848
:104B6000303B0928F3D93000984616000A9700E632
:104B7000099B023604CB9046D2434046D2171040E0
:104B8000804609933078F4E51022080090431132F2
:104B90001043834600224905B0D55B46069308239F
:104BA000059343460493102303930023029316AB0B
:104BB000019200932A004B4621000898FFF7A6F8BF
:104BC0005346050001360993ADE513789C46002B4A
:104BD00000D1F7E202235B4237E7202302009A4329
:104BE000472A04D180231B011943022398434528F7
:104BF00001D1202319430722099B049107339343D2
:104C00000A9A19000392424602920CC9089800922F
:104C1000019309912A004B462100FFF76DF90136F7
:104C2000050080E510230C930C230A009A430B9295
:104C30004B0503D501230B9A9A430B92692800D1A7
:104C400027E6642800D124E60B9A802311009B00FC
:104C500019408B461A4200D066E1802311005B00A8
:104C600019408A461A4200D039E213005B0600D58B
:104C70003CE113001B0600D4A6E2099B04CB1204FE
:104C8000120C934609935B46002B00D09AE10B9AD5
:104C90001033110099430B91520500D492E1002387
:104CA0009A460B9B06930A9B0593434604930C9BE1
:104CB000039300230CE12023194360E6099B0A9A21
:104CC0005B1B98464B4691461F00B2462600089C47
:104CD0002A003B003100A04743460135585D0028BB
:104CE000F6D14A463400B94656460A92F5E6C02344
:104CF0009B00B078194302365DE5C023B0781943B4
:104D0000023658E50C230A009A4314331A43103B29
:104D10000B920C934B058DD496E7A1463400564672
:104D2000DBE60A9A012A00D853E26B1E9F18089B03
:104D3000B04626004C4699462A0023000135310032
:104D40002020C847BD42F7D1A14634004646099B02
:104D50003A0001CB210098467D1C4B46089FC0B20B
:104D6000B847434601360993DDE40B9B0A9AA846EF
:104D70009A4200D8B5E694466544ED1A089B47462A
:104D8000B04626004C4699463A00230001373100D0
:104D90002020C847AF42F7D1A14634004646A0E6DE
:104DA0000B9A0A99531C914200D814E24B199B1A92
:104DB0001F00089BB24626004C4699462A00230055
:104DC000013531002020C847BD42F7D10A9BA146DA
:104DD00001330B93099B34001B7856469C46604672
:104DE000002800D058E67CE60722099B073393434E
:104DF000013294469C4462465F6809921A68FB1728
:104E00001093119310981199030053400E930B00C7
:104E10007B400F9394460E9A0F9B121A8B410E9271
:104E20000F93FB0F6246129300233A439B463DD0FB
:104E30000B9A6123920600D541230022DBB20EA912
:104E40000A3B8C4692460D9343461F3262441395AB
:104E5000159655460E9E0F9FA24690460C9C1493A5
:104E60000CE03032D2B2434601355A55BB4500D131
:104E70008AE1202D00D18AE106000F0022000023E4
:104E80003000390000F078FAD2B2092AE9D90D9B36
:104E90009C466244D2B2E6E7FF23099904C9134055
:104EA0001A00099117E5C0466D3C00100B9A1033AB
:104EB000110099430B915205BAD500239A460B9BDA
:104EC00006930A9B0593434604930C9B0393129B02
:104ED00002935346019316AB2A00009321004B46E0
:104EE0000898FEF713FF013605001CE4FF22099B1A
:104EF00002CB11408B460993C5E6534645460993BC
:104F00000136FFF710FC56465C46AA46139DD6E7CD
:104F100008230C930B910B99642800D084E60B9B1B
:104F20005B0500D586E6B4E40722099B073393436B
:104F3000013294469C44624609921A685B681000EC
:104F40009B4613005A46134307D10B9A10331100A6
:104F500099430B91520500D5A1E60B9A6123920665
:104F600000D541230022DBB20EA90A3B8C469246B3
:104F70000D9343461F3262445F461295A346554641
:104F80000400B24690460C9E13930DE03032D2B22C
:104F9000434601355A550023BB4200D100E1202D84
:104FA00000D100E104000F0032000023200039008E
:104FB00000F0E2F9D2B2092AE8D90D9B9C4662447E
:104FC000D2B2E5E70B9A6123920600D54123DBB20A
:104FD0000EA90A3B1F228C460D93230062445C46B7
:104FE0001295170055469B46B2460C9E08E030339A
:104FF000DBB201357B55B4420ED3202D0CD004001A
:105000003100200000F076F9CBB20929EFD90D9AD2
:1050100094466344DBB2ECE756465C46AA46129DD2
:105020003FE6099B1A0008CAD91713925A184A403A
:105030009246DA0F1292002B08D1802310220B998E
:10504000DB000B4091430B91002B2BD10B9A61237A
:10505000920600D541230EAA1F279446DBB20A3BD5
:105060000D9567445D460993A3465446B2460C9E8F
:1050700008E03033DBB201357B55B4420ED3202D2E
:105080000CD004003100200000F034F9CBB2092923
:10509000EFD9099A94466344DBB2ECE756465C4686
:1050A000AB460D9D0B9B2A0006930A9B210005939E
:1050B000434604930C9B08980393129B013602937A
:1050C0005B46019316AB00934B46FEF71FFE139B06
:1050D00005000993FFF727FB02230C931AE7099BAE
:1050E00004CB92461293002A08D1802310220B99F8
:1050F000DB000B4091430B91002B2BD10B9A6123CA
:10510000920600D541230EAA1F279446DBB20A3B24
:105110000D9567445D460993A3465446B2460C9EDE
:1051200008E03033DBB201357B55B4420ED3202D7D
:105130000CD004003100200000F0DCF8CBB20929CB
:10514000EFD9099A94466344DBB2ECE756465C46D5
:10515000AB460D9D0B9B2A0006930A9B21000593ED
:10516000434604930C9B08980393002302935B46E9
:10517000019316AB00934B46FEF7C8FD129B05004A
:1051800009930136FFF7CFFAB44200D871E6149BB9
:1051900054460E960F97AA469846159E139D8EE686
:1051A000A64200D8FBE6139B56469846AA465C46A4
:1051B000129D76E508C9D8171A1842400991FFF7E1
:1051C0008AFB00230B9350E4099B04CB934609937D
:1051D00059E52F00BBE50B9301E6063B0C939AE6DD
:1051E00000B585B00391012102900093034813009C
:1051F0004A4202A9FFF772FA05B000BDE93E00106D
:1052000010B5094A0300146884B0002C08D00122AC
:1052100000910648524203A9A047012004B010BDE6
:1052200001F0E6F80020F9E7D8AB0020D93E0010E5
:1052300001480421014B184790930020615200104F
:10524000142310B50100188804331B88984710BD3B
:10525000162310B50100188802331B88984710BD2B
:10526000F8B54746CE4680B50F1E19D0142399468F
:10527000043304000025012698464B46188843460F
:1052800021681B88984701C4431E9841013540425C
:105290000640AF42F1D13000C0BCB946B046F8BDBF
:1052A0000126F8E7124A936F9B0815D29066D166E3
:1052B000002905D0FFE7FFE7FFE7516F106F704748
:1052C00004B580210906C2175140002800D0C84308
:1052D00007F0CEFB002104BDF0B5146E556E576F7C
:1052E000166FFFF7E3FF1466556657671667F0BD44
:1052F000000000D0114A936F9B0813D210665166CC
:10530000002905D0FFE7FFE7FFE7516F106F7047F7
:1053100004B5002801D00020C04307F0A9FB0021FC
:1053200004BDC046F0B5146E556E576F166FFFF78B
:10533000E5FF1466556657671667F0BD000000D09C
:1053400094464E4A926F9208624601D230E0C046BF
:10535000F0B54A4EB56F6D08FCD3346E756E776F3D
:10536000366F00F025F89446444A14665566576730
:1053700016676246F0BDC0469446404A926F920856
:10538000624601D258E0C046F0B53C4EB56F6D089C
:10539000FCD3346E756E776F366F00F04DF894461F
:1053A000364A14665566576716676246F0BDC046B2
:1053B000002B24DB11D000293EDA00B5C94340425E
:1053C00000D1013100F038F8C943404200D1013129
:1053D000DB43524200D1013300BD002AEBD100284B
:1053E00001D1002905D00020C90FC90701D1C04350
:1053F000410800B507F034FB0022002300BD00B5D2
:1054000000290ADBDB43524200D1013300F014F8DB
:10541000C943404200D1013100BDC943404200D1DF
:105420000131DB43524200D1013300F005F8DB4388
:10543000524200D1013300BD002923D1002B18D1E5
:10544000002A0CD0BC460D4F38667A660021002336
:10545000FFE7FFE7FFE77A6F386F6746704700287E
:1054600001D00748010000B507F0FAFA0022002336
:1054700000BD02000B00002000217047000000D09A
:10548000FFFFFFFF002B00D0BFE0130C28D1002A44
:10549000E7D080B4114F39667A66FFE7FFE730B492
:1054A000040C7B6F396F1B0423433B667A66FFE76E
:1054B000FFE7FFE7C04684B27B6F3D6F1B042343C9
:1054C0003B667A66FFE7FFE7C04600232C042D0CFD
:1054D0007A6F386F00196941B0BC7047000000D086
:1054E000F0B594460025140E01D112020835140FB0
:1054F00001D112010435940F01D192000235D40F6D
:1055000001D152000135D40B0134254F7C66254C66
:105510003C660E0C93B2FFE7FFE7FFE73C6F664384
:10552000360C7703BE467343DF0B5B04C01AB941E8
:10553000130C7343DB18C91ACE086643360CB64405
:1055400093B273431F0F1B01C01AB941130C73436D
:105550001F0B1B05C01AB941860D8F023E436643DF
:10556000360C092D24DB520A7243801A7703460A4F
:105570006643360C16235B1BDE40DF40BF196446D2
:105580006643821B7046043506330100D940A840AB
:10559000C01900D30131A24206D20023F0BD0000A1
:1055A000000000D0FFFFFFFF121B0130F3D3F1E733
:1055B00009277F1BFE406446A2B27243801A00D2C4
:1055C0000139220C7243130C1204821A99410B0008
:1055D0007046043513370100F940A840801900D304
:1055E0000131002B02D1A2420AD2F0BD013000D31A
:1055F0000131121BFAD2013BF8D1A24200D2F0BD18
:10560000013000D30131121BF7E7F0B51C0C00D0BC
:1056100080E00CB400251C0A04D11B02160E334393
:10562000120208351C0B04D11B01160F3343120163
:1056300004359C0B04D19B00960F33439200023536
:10564000DC0B02D192185B4101351C0097186441B4
:105650000134464F7C66464C3C660E0CFFE7FFE784
:10566000FFE7C0463C6F6643360C7703BE4697B2F1
:105670007743C01B00D20139C01B00D201399FB251
:105680007743C91BC91B170C77437E04FF0B801B94
:10569000B941CE086643360C0C2D33DBB644120BF1
:1056A0001F053A431B0B97B27743C01B00D2013949
:1056B0009FB27743C91B170C77433E043F0C801BF6
:1056C000B941860D8F023E43664329277F1BFE406A
:1056D0000C3D7746AF40BF1930BCA2B2ABB27243AB
:1056E0007343801A9941220C7243130C1204801ADE
:1056F000994102000B000137001BA941F9D2781E25
:105700000021F0BD0C277F1BFE4077467F0BAF408A
:10571000FF19E0E700245D1C07D0144F7D66396651
:10572000FFE7FFE7FFE7FFE73C6F95B29EB26543F7
:105730006643401BB141150C1E0C6543664336049D
:105740002F0C3E432D04401BB141994204D202006C
:105750000B0020000021F0BD01D19042F7D3801A48
:10576000994101349942F2D3F6E70000000000D0DD
:10577000FFFFFFFF48404140484018B41B4B5B68A7
:10578000FC46019308BD04DF2B5A001018B4174BD8
:105790001B68FC46019308BD00DF355A0010944693
:1057A000134A926F920809D2624618B40F4BDB6815
:1057B000FC46019308BD0CDFED5C00100C4AF0B50F
:1057C000146E556E576F166F6246FFF7EEFF084A6C
:1057D0001466556657671667F0BD18B4034B9B688F
:1057E000FC46019308BD08DF915B0010489F002034
:1057F000000000D0FFB550404240504059404B405F
:10580000594000E0FFB5154F4C00640D03D0BC4279
:1058100004D10C0314D80020090D09055C00640DA7
:1058200003D0BC4204D11C030AD800221B0D1B0567
:1058300001264B4009D44B4003D58B4200D1824214
:10584000FFBD9942FCD19042FFBD0B43DB180343DF
:105850001343F5D0C9434918FFBD0000FF070000FE
:1058600000B5FFF7CFFF804100BDC04600B5FFF790
:10587000C9FF01D9002000BD012000BD00B5FFF720
:10588000B9FF01D9002000BD012000BD00B5FFF720
:10589000B1FF804100BD012040054A00121804D824
:1058A0005A00121801D800207047012070470020CC
:1058B000704700000021002805D17047C1174840FB
:1058C000401AFAD0C90713B5064B1B6898470CBCA1
:1058D000441CA2401005120B0349091B090519437A
:1058E000114310BD90AC00201F04000010B54C0007
:1058F000620D8023D218DB00D21A5B057E2A10DDF0
:105900009E3A13DACC170903490819435242D14091
:10591000640001341532202A05DAD0400843604380
:1059200010BD002010BD0846604310BDC80FC01850
:10593000013810BD18B4044B5B6AFC46019308BDE6
:1059400024DF9D5E00100000489F002018B4044B27
:10595000DB6DFC46019308BD5CDF355F0010000085
:10596000489F0020132370B51D78012D15D010DD40
:105970001C48FFF76DFC1C4C01008022200000F049
:10598000CBFB022D06D01948FFF75AFC184B1860C4
:1059900070BD154C174BA364F5E7164B124C2360F2
:1059A0006360A360E36023616361A361E3612362D9
:1059B0006362A362E36223636363A363E3632364B9
:1059C0006364A364E36423656365A365E365236699
:1059D0006366A366E36623676367A367E367A364FD
:1059E000D1E7C04653440000489F00204C330000DC
:1059F00090AC0020F959001007B5604601880A0AEA
:105A00000230DF2AFAD1C9B2820804D30288408862
:105A10000004104300E00068014A5050039007BDA5
:105A2000489F00200FB403BC0CBCF0B50124E40770
:105A3000634000E0F0B50C0DCF0F661E3605891BE4
:105A4000640503D3C943404200D30131640D03D040
:105A5000661CF60A07D0E41B00207F00791C89072A
:105A60008912803C24031D0DDF0F6E1E36059B1B23
:105A70006D0503D3DB43524200D301336D0D03D0D8
:105A80006E1CF60A07D0ED1B00227F007B1C9B07D3
:105A90009B12803D2D032F1B661B58D4A446202E3D
:105AA00046DA20371400BC401D00BD40F2403341AF
:105AB0002A4380185941CB0F05D0C943C043002267
:105AC00064425041514162464D0D28D10D0D07D120
:105AD00000281FD0241940414941013A0D0DF9D049
